{"contracts/Wagemore.sol":{"Wagemore":{"abi":[{"inputs":[{"internalType":"address","name":"_optimisticOracle","type":"address"}],"stateMutability":"nonpayable","type":"constructor"},{"inputs":[],"name":"EnforcedPause","type":"error"},{"inputs":[],"name":"ExpectedPause","type":"error"},{"inputs":[{"internalType":"address","name":"owner","type":"address"}],"name":"OwnableInvalidOwner","type":"error"},{"inputs":[{"internalType":"address","name":"account","type":"address"}],"name":"OwnableUnauthorizedAccount","type":"error"},{"inputs":[],"name":"ReentrancyGuardReentrantCall","type":"error"},{"anonymous":false,"inputs":[{"indexed":false,"internalType":"uint256","name":"newBond","type":"uint256"}],"name":"AssertionBondUpdated","type":"event"},{"anonymous":false,"inputs":[{"indexed":false,"internalType":"uint64","name":"newFee","type":"uint64"}],"name":"CreationFeeUpdated","type":"event"},{"anonymous":false,"inputs":[{"indexed":true,"internalType":"uint64","name":"marketId","type":"uint64"},{"indexed":true,"internalType":"address","name":"creator","type":"address"},{"indexed":false,"internalType":"string","name":"title","type":"string"},{"indexed":false,"internalType":"string","name":"imageUrl","type":"string"},{"indexed":false,"internalType":"string[]","name":"options","type":"string[]"},{"indexed":false,"internalType":"uint8","name":"optionCount","type":"uint8"},{"indexed":false,"internalType":"enum Wagemore.MarketType","name":"marketType","type":"uint8"},{"indexed":false,"internalType":"uint64","name":"endTime","type":"uint64"},{"indexed":false,"internalType":"uint64","name":"timestamp","type":"uint64"}],"name":"MarketCreated","type":"event"},{"anonymous":false,"inputs":[{"indexed":true,"internalType":"uint64","name":"marketId","type":"uint64"},{"indexed":false,"internalType":"uint8","name":"winningOption","type":"uint8"},{"indexed":false,"internalType":"bytes32","name":"assertionId","type":"bytes32"},{"indexed":false,"internalType":"bool","name":"viaOracle","type":"bool"},{"indexed":false,"internalType":"uint64","name":"timestamp","type":"uint64"}],"name":"MarketResolved","type":"event"},{"anonymous":false,"inputs":[{"indexed":false,"internalType":"address","name":"newOracle","type":"address"}],"name":"OracleUpdated","type":"event"},{"anonymous":false,"inputs":[{"indexed":true,"internalType":"address","name":"previousOwner","type":"address"},{"indexed":true,"internalType":"address","name":"newOwner","type":"address"}],"name":"OwnershipTransferred","type":"event"},{"anonymous":false,"inputs":[{"indexed":false,"internalType":"address","name":"account","type":"address"}],"name":"Paused","type":"event"},{"anonymous":false,"inputs":[{"indexed":false,"internalType":"uint64","name":"newBps","type":"uint64"}],"name":"PlatformFeeUpdated","type":"event"},{"anonymous":false,"inputs":[{"indexed":false,"internalType":"address","name":"owner","type":"address"},{"indexed":false,"internalType":"uint64","name":"amount","type":"uint64"}],"name":"PlatformFeesWithdrawn","type":"event"},{"anonymous":false,"inputs":[{"indexed":true,"internalType":"uint64","name":"marketId","type":"uint64"},{"indexed":true,"internalType":"address","name":"proposer","type":"address"},{"indexed":false,"internalType":"uint8","name":"proposedWinner","type":"uint8"},{"indexed":false,"internalType":"bytes32","name":"assertionId","type":"bytes32"},{"indexed":false,"internalType":"string","name":"evidence","type":"string"},{"indexed":false,"internalType":"uint64","name":"timestamp","type":"uint64"}],"name":"ResolutionProposed","type":"event"},{"anonymous":false,"inputs":[{"indexed":true,"internalType":"uint64","name":"marketId","type":"uint64"},{"indexed":true,"internalType":"address","name":"buyer","type":"address"},{"indexed":false,"internalType":"uint8","name":"optionIndex","type":"uint8"},{"indexed":false,"internalType":"uint64","name":"amount","type":"uint64"},{"indexed":false,"internalType":"uint64","name":"timestamp","type":"uint64"}],"name":"SharesPurchased","type":"event"},{"anonymous":false,"inputs":[{"indexed":false,"internalType":"address","name":"account","type":"address"}],"name":"Unpaused","type":"event"},{"anonymous":false,"inputs":[{"indexed":true,"internalType":"uint64","name":"marketId","type":"uint64"},{"indexed":true,"internalType":"address","name":"claimer","type":"address"},{"indexed":false,"internalType":"uint64","name":"amount","type":"uint64"},{"indexed":false,"internalType":"uint64","name":"timestamp","type":"uint64"}],"name":"WinningsClaimed","type":"event"},{"inputs":[],"name":"ASSERTION_LIVENESS","outputs":[{"internalType":"uint64","name":"","type":"uint64"}],"stateMutability":"view","type":"function"},{"inputs":[],"name":"DEFAULT_IDENTIFIER","outputs":[{"internalType":"bytes32","name":"","type":"bytes32"}],"stateMutability":"view","type":"function"},{"inputs":[],"name":"accumulatedFees","outputs":[{"internalType":"uint64","name":"","type":"uint64"}],"stateMutability":"view","type":"function"},{"inputs":[],"name":"assertionBond","outputs":[{"internalType":"uint256","name":"","type":"uint256"}],"stateMutability":"view","type":"function"},{"inputs":[{"internalType":"bytes32","name":"","type":"bytes32"}],"name":"assertionIdToMarketId","outputs":[{"internalType":"uint64","name":"","type":"uint64"}],"stateMutability":"view","type":"function"},{"inputs":[{"internalType":"uint64","name":"","type":"uint64"},{"internalType":"uint8","name":"","type":"uint8"},{"internalType":"address","name":"","type":"address"}],"name":"bets","outputs":[{"internalType":"uint256","name":"","type":"uint256"}],"stateMutability":"view","type":"function"},{"inputs":[{"internalType":"uint64","name":"marketId","type":"uint64"}],"name":"claimWinnings","outputs":[],"stateMutability":"nonpayable","type":"function"},{"inputs":[{"internalType":"string","name":"title","type":"string"},{"internalType":"string","name":"imageUrl","type":"string"},{"internalType":"string[]","name":"optionLabels","type":"string[]"},{"internalType":"uint64","name":"endTime","type":"uint64"},{"internalType":"enum Wagemore.MarketType","name":"_marketType","type":"uint8"}],"name":"createMarket","outputs":[{"internalType":"uint64","name":"","type":"uint64"}],"stateMutability":"payable","type":"function"},{"inputs":[],"name":"creationFee","outputs":[{"internalType":"uint64","name":"","type":"uint64"}],"stateMutability":"view","type":"function"},{"inputs":[{"internalType":"uint64","name":"marketId","type":"uint64"},{"internalType":"uint8","name":"winningOption","type":"uint8"}],"name":"emergencyResolve","outputs":[],"stateMutability":"nonpayable","type":"function"},{"inputs":[{"internalType":"uint64","name":"marketId","type":"uint64"}],"name":"finalizeResolution","outputs":[],"stateMutability":"nonpayable","type":"function"},{"inputs":[{"internalType":"uint64","name":"marketId","type":"uint64"}],"name":"getMarketState","outputs":[{"internalType":"address","name":"creator","type":"address"},{"internalType":"uint64","name":"endTime","type":"uint64"},{"internalType":"uint64","name":"totalPool","type":"uint64"},{"internalType":"bool","name":"resolved","type":"bool"},{"internalType":"uint8","name":"winningOption","type":"uint8"},{"internalType":"uint8","name":"optionCount","type":"uint8"},{"internalType":"enum Wagemore.MarketType","name":"marketType","type":"uint8"},{"internalType":"bytes32","name":"assertionId","type":"bytes32"},{"internalType":"bool","name":"oracleResolved","type":"bool"}],"stateMutability":"view","type":"function"},{"inputs":[{"internalType":"uint64","name":"marketId","type":"uint64"},{"internalType":"uint8","name":"optionIndex","type":"uint8"},{"internalType":"address","name":"user","type":"address"}],"name":"getUserBet","outputs":[{"internalType":"uint256","name":"","type":"uint256"}],"stateMutability":"view","type":"function"},{"inputs":[],"name":"isOracleEnabled","outputs":[{"internalType":"bool","name":"","type":"bool"}],"stateMutability":"view","type":"function"},{"inputs":[{"internalType":"uint64","name":"","type":"uint64"}],"name":"markets","outputs":[{"internalType":"uint64","name":"id","type":"uint64"},{"internalType":"address","name":"creator","type":"address"},{"internalType":"uint64","name":"endTime","type":"uint64"},{"internalType":"uint64","name":"totalPool","type":"uint64"},{"internalType":"bool","name":"resolved","type":"bool"},{"internalType":"uint8","name":"winningOption","type":"uint8"},{"internalType":"uint8","name":"optionCount","type":"uint8"},{"internalType":"enum Wagemore.MarketType","name":"marketType","type":"uint8"},{"internalType":"bytes32","name":"assertionId","type":"bytes32"},{"internalType":"bool","name":"oracleResolved","type":"bool"}],"stateMutability":"view","type":"function"},{"inputs":[],"name":"nextMarketId","outputs":[{"internalType":"uint64","name":"","type":"uint64"}],"stateMutability":"view","type":"function"},{"inputs":[],"name":"oo","outputs":[{"internalType":"contract OptimisticOracleV3Interface","name":"","type":"address"}],"stateMutability":"view","type":"function"},{"inputs":[],"name":"owner","outputs":[{"internalType":"address","name":"","type":"address"}],"stateMutability":"view","type":"function"},{"inputs":[],"name":"pause","outputs":[],"stateMutability":"nonpayable","type":"function"},{"inputs":[],"name":"paused","outputs":[{"internalType":"bool","name":"","type":"bool"}],"stateMutability":"view","type":"function"},{"inputs":[],"name":"platformFeeBps","outputs":[{"internalType":"uint64","name":"","type":"uint64"}],"stateMutability":"view","type":"function"},{"inputs":[{"internalType":"uint64","name":"marketId","type":"uint64"},{"internalType":"uint8","name":"winningOption","type":"uint8"},{"internalType":"string","name":"evidence","type":"string"}],"name":"proposeResolution","outputs":[],"stateMutability":"payable","type":"function"},{"inputs":[{"internalType":"uint64","name":"marketId","type":"uint64"},{"internalType":"uint8","name":"optionIndex","type":"uint8"}],"name":"purchaseShares","outputs":[],"stateMutability":"payable","type":"function"},{"inputs":[],"name":"renounceOwnership","outputs":[],"stateMutability":"nonpayable","type":"function"},{"inputs":[{"internalType":"uint256","name":"newBond","type":"uint256"}],"name":"setAssertionBond","outputs":[],"stateMutability":"nonpayable","type":"function"},{"inputs":[{"internalType":"uint64","name":"newFee","type":"uint64"}],"name":"setCreationFee","outputs":[],"stateMutability":"nonpayable","type":"function"},{"inputs":[{"internalType":"address","name":"newOracle","type":"address"}],"name":"setOracle","outputs":[],"stateMutability":"nonpayable","type":"function"},{"inputs":[{"internalType":"uint64","name":"newBps","type":"uint64"}],"name":"setPlatformFee","outputs":[],"stateMutability":"nonpayable","type":"function"},{"inputs":[{"internalType":"address","name":"newOwner","type":"address"}],"name":"transferOwnership","outputs":[],"stateMutability":"nonpayable","type":"function"},{"inputs":[],"name":"unpause","outputs":[],"stateMutability":"nonpayable","type":"function"},{"inputs":[],"name":"withdrawFees","outputs":[],"stateMutability":"nonpayable","type":"function"},{"stateMutability":"payable","type":"receive"}],"evm":{"bytecode":{"linkReferences":{},"object":"6080604052662386f26fc10000600355600480546001600160c01b03191676038d7ea4c6800000000000000003e800000000000000011790553480156200004557600080fd5b5060405162002e9338038062002e93833981016040819052620000689162000127565b33806200008f57604051631e4fbdf760e01b81526000600482015260240160405180910390fd5b6200009a81620000d7565b50600180556001600160a01b03811615620000d05760028054610100600160a81b0319166101006001600160a01b038416021790555b5062000159565b600080546001600160a01b038381166001600160a01b0319831681178455604051919092169283917f8be0079c531659141344cd1fd0a4f28419497f9722a3daafe3b4186f6b6457e09190a35050565b6000602082840312156200013a57600080fd5b81516001600160a01b03811681146200015257600080fd5b9392505050565b612d2a80620001696000396000f3fe6080604052600436106101dc5760003560e01c80636e8734bd11610102578063a8e6233811610095578063dce0b4e411610064578063dce0b4e4146106d7578063e79c7666146106fe578063f2fde38b14610711578063ff1fca411461073157600080fd5b8063a8e623381461057d578063c48b33241461059d578063c79fdaf914610647578063cff5c5991461067d57600080fd5b80637bdeb4c4116100d15780637bdeb4c4146104f75780638456cb591461050d5780638921a614146105225780638da5cb5b1461055f57600080fd5b80636e8734bd1461045657806370af7df6146104a2578063715018a6146104c25780637adbf973146104d757600080fd5b8063406ef2ef1161017a578063520d8dd011610149578063520d8dd0146103f1578063587f5ed7146104045780635c975abb1461042b5780636a2d2a671461044357600080fd5b8063406ef2ef14610386578063476343ee146103a65780634f39b4ef146103bb57806350d86f0c146103d157600080fd5b8063201d2f2b116101b6578063201d2f2b1461024a57806322dcd13e146102fc5780633e08d2541461033b5780633f4ba83a1461037157600080fd5b806308f7ed50146101e857806309d5e03d1461020a5780631a12e7a91461022a57600080fd5b366101e357005b600080fd5b3480156101f457600080fd5b5061020861020336600461232b565b610754565b005b34801561021657600080fd5b5061020861022536600461235e565b610af5565b34801561023657600080fd5b5061020861024536600461232b565b610c70565b34801561025657600080fd5b506102de61026536600461232b565b6001600160401b03908116600090815260056020819052604090912080546001820154600383015460048401549390940154600160401b928390046001600160a01b03169682871696939092049092169360ff808216946101008304821694620100008404831694630100000090940483169391921690565b6040516102f3999897969594939291906123cf565b60405180910390f35b34801561030857600080fd5b5060045461032390600160401b90046001600160401b031681565b6040516001600160401b0390911681526020016102f3565b34801561034757600080fd5b5061036160025461010090046001600160a01b0316151590565b60405190151581526020016102f3565b34801561037d57600080fd5b50610208610cda565b34801561039257600080fd5b50600454610323906001600160401b031681565b3480156103b257600080fd5b50610208610cec565b3480156103c757600080fd5b50610323611c2081565b3480156103dd57600080fd5b506102086103ec36600461243a565b610e5d565b6103236103ff3660046124aa565b610e9a565b34801561041057600080fd5b5060045461032390600160c01b90046001600160401b031681565b34801561043757600080fd5b5060025460ff16610361565b61020861045136600461235e565b6113b4565b34801561046257600080fd5b506104946104713660046125a9565b600660209081526000938452604080852082529284528284209052825290205481565b6040519081526020016102f3565b3480156104ae57600080fd5b506102086104bd36600461232b565b6116c4565b3480156104ce57600080fd5b5061020861177f565b3480156104e357600080fd5b506102086104f23660046125f4565b611791565b34801561050357600080fd5b5061049460035481565b34801561051957600080fd5b506102086117ef565b34801561052e57600080fd5b506002546105479061010090046001600160a01b031681565b6040516001600160a01b0390911681526020016102f3565b34801561056b57600080fd5b506000546001600160a01b0316610547565b34801561058957600080fd5b5061020861059836600461232b565b6117ff565b3480156105a957600080fd5b506106316105b836600461232b565b6005602081905260009182526040909120805460018201546003830154600484015493909401546001600160401b03808416956001600160a01b03600160401b958690041695848316959094049091169260ff80831693610100840482169362010000810483169363010000009091048316929091168a565b6040516102f39a99989796959493929190612611565b34801561065357600080fd5b5061032361066236600461243a565b6007602052600090815260409020546001600160401b031681565b34801561068957600080fd5b506104946106983660046125a9565b6001600160401b038316600090815260066020908152604080832060ff8616845282528083206001600160a01b03851684529091529020549392505050565b3480156106e357600080fd5b5060045461032390600160801b90046001600160401b031681565b61020861070c366004612686565b611b45565b34801561071d57600080fd5b5061020861072c3660046125f4565b612081565b34801561073d57600080fd5b506104946b082a6a68aa4a8bea8a4aaa8960a31b81565b61075c6120bc565b6001600160401b0381166000908152600560205260409020600381015460ff166107cd5760405162461bcd60e51b815260206004820152601760248201527f4d61726b6574206e6f74207265736f6c7665642079657400000000000000000060448201526064015b60405180910390fd5b60038101546001600160401b038316600090815260066020908152604080832061010090940460ff16808452938252808320338452909152902054806108555760405162461bcd60e51b815260206004820152601860248201527f4e6f2077696e6e696e67206265747320746f20636c61696d000000000000000060448201526064016107c4565b6001600160401b038416600090815260066020908152604080832060ff86168085529083528184203385529092528220829055600285018054909190811061089f5761089f6126ea565b60009182526020909120600482040154600186015460039092166008026101000a90046001600160401b039081169250600160401b909104168161091c5760405162461bcd60e51b815260206004820152601460248201527321b934ba34b1b0b6103637b3b4b19032b93937b960611b60448201526064016107c4565b6004546000906127109061094090600160401b90046001600160401b031684612716565b61094a9190612757565b90506000610958828461277d565b90506000846001600160401b0316826001600160401b03168761097b91906127a4565b61098591906127c1565b90506000856001600160401b0316846001600160401b0316886109a891906127a4565b6109b291906127c1565b905080600460188282829054906101000a90046001600160401b03166109d891906127d5565b92506101000a8154816001600160401b0302191690836001600160401b031602179055506000336001600160a01b03168360405160006040518083038185875af1925050503d8060008114610a49576040519150601f19603f3d011682016040523d82523d6000602084013e610a4e565b606091505b5050905080610a955760405162461bcd60e51b8152602060048201526013602482015272115512081d1c985b9cd9995c8819985a5b1959606a1b60448201526064016107c4565b604080516001600160401b03858116825242811660208301523392908e16917f3520bd0d212203188671828c1a9b17db4c98a90223d58cc9ace784647b01a8ca910160405180910390a350505050505050505050610af260018055565b50565b610afd6120e6565b610b056120bc565b6001600160401b03808316600090815260056020526040812080549092169003610b415760405162461bcd60e51b81526004016107c4906127f5565b600381015460ff1615610b665760405162461bcd60e51b81526004016107c49061281d565b60025461010090046001600160a01b031615610be2576001810154610b97906001600160401b031662093a806127d5565b6001600160401b0316421015610be25760405162461bcd60e51b815260206004820152601060248201526f4d75737420776169742037206461797360801b60448201526064016107c4565b60038101805460ff8416610100810261ffff199092169190911760011790915560058201805460ff1916905560408051918252600060208301819052908201526001600160401b0342811660608301528416907ffd2fa1b727ea98bb20d901e164bff12e56b3e841ab8d13627cc7679983f25ff59060800160405180910390a250610c6c60018055565b5050565b610c786120e6565b6004805467ffffffffffffffff60801b1916600160801b6001600160401b038416908102919091179091556040519081527f5167549ae119ac4addeb35b8ce4990653fbcb9808333df7a220528cece0811f6906020015b60405180910390a150565b610ce26120e6565b610cea612113565b565b610cf46120e6565b610cfc6120bc565b600454600160c01b90046001600160401b031680610d525760405162461bcd60e51b81526020600482015260136024820152724e6f206665657320746f20776974686472617760681b60448201526064016107c4565b600480546001600160c01b03169055600080546040516001600160a01b039091169083908381818185875af1925050503d8060008114610dae576040519150601f19603f3d011682016040523d82523d6000602084013e610db3565b606091505b5050905080610df65760405162461bcd60e51b815260206004820152600f60248201526e151c985b9cd9995c8819985a5b1959608a1b60448201526064016107c4565b7fbd73d7d83ef852d37fefb08cbfca5f3184d4180ed23f1102cf123c46d9ef8dc2610e296000546001600160a01b031690565b604080516001600160a01b0390921682526001600160401b03851660208301520160405180910390a15050610cea60018055565b610e656120e6565b60038190556040518181527f0130d746740ba1f3dc1a09241a6b68a409437a6b7689a24051a23e64c1b9955990602001610ccf565b6000610ea4612165565b42836001600160401b031611610efc5760405162461bcd60e51b815260206004820152601a60248201527f456e642074696d65206d75737420626520696e2066757475726500000000000060448201526064016107c4565b87610f3a5760405162461bcd60e51b815260206004820152600e60248201526d151a5d1b19481c995c5d5a5c995960921b60448201526064016107c4565b6000826001811115610f4e57610f4e612397565b03610fa85760028414610fa35760405162461bcd60e51b815260206004820152601a60248201527f42696e617279206d75737420686176652032206f7074696f6e7300000000000060448201526064016107c4565b61103b565b6002841015610ff95760405162461bcd60e51b815260206004820152601960248201527f4d756c7469706c65206e6565647320322b206f7074696f6e730000000000000060448201526064016107c4565b601484111561103b5760405162461bcd60e51b815260206004820152600e60248201526d4d6178203230206f7074696f6e7360901b60448201526064016107c4565b6000546001600160a01b031633146110f057600454600160801b90046001600160401b031634146110a75760405162461bcd60e51b8152602060048201526016602482015275496e636f7272656374206372656174696f6e2066656560501b60448201526064016107c4565b34600460188282829054906101000a90046001600160401b03166110cb91906127d5565b92506101000a8154816001600160401b0302191690836001600160401b031602179055505b600480546000916001600160401b03909116908261110d83612847565b91906101000a8154816001600160401b0302191690836001600160401b0316021790555090506000868690509050604051806101600160405280836001600160401b03168152602001336001600160a01b03168152602001866001600160401b0316815260200160006001600160401b031681526020018260ff166001600160401b0381111561119f5761119f61286d565b6040519080825280602002602001820160405280156111c8578160200160208202803683370190505b508152600060208201819052604082015260ff831660608201526080018560018111156111f7576111f7612397565b81526000602080830182905260409283018290526001600160401b038681168352600582529183902084518154868401519185166001600160e01b031990911617600160401b6001600160a01b0390921682021782559385015160018201805460608801519286166fffffffffffffffffffffffffffffffff199091161791909416909402939093179091556080830151805161129a9260028501920190612239565b5060a082015160038201805460c085015160e086015161ffff1990921693151561ff0019169390931761010060ff94851681029190911762ff000019811662010000959093169490940291821783558501519263ffff0000191663ff0000001990911617630100000083600181111561131557611315612397565b021790555061012082015181600401556101408201518160050160006101000a81548160ff021916908315150217905550905050336001600160a01b0316826001600160401b03167f8c284e3567b6eddba2111e7034557394e5c8093010cedfeb9fd6549b009a7d678d8d8d8d8d8d898d8f4260405161139e9a999897969594939291906128ac565b60405180910390a3509998505050505050505050565b6113bc612165565b6113c46120bc565b6000341161140d5760405162461bcd60e51b8152602060048201526016602482015275042657420616d6f756e74206d757374206265203e20360541b60448201526064016107c4565b6001600160401b038083166000908152600560205260408120805490921690036114715760405162461bcd60e51b815260206004820152601560248201527413585c9ad95d08191bd95cc81b9bdd08195e1a5cdd605a1b60448201526064016107c4565b600381015460ff16156114c65760405162461bcd60e51b815260206004820152601760248201527f4d61726b657420616c7265616479207265736f6c76656400000000000000000060448201526064016107c4565b60018101546001600160401b031642106115185760405162461bcd60e51b815260206004820152601360248201527210995d1d1a5b99c81c1a185cd948195b991959606a1b60448201526064016107c4565b600381015460ff6201000090910481169083161061156f5760405162461bcd60e51b8152602060048201526014602482015273092dcecc2d8d2c840dee0e8d2dedc40d2dcc8caf60631b60448201526064016107c4565b348160010160088282829054906101000a90046001600160401b031661159591906127d5565b92506101000a8154816001600160401b0302191690836001600160401b0316021790555034816002018360ff16815481106115d2576115d26126ea565b90600052602060002090600491828204019190066008028282829054906101000a90046001600160401b031661160891906127d5565b82546101009290920a6001600160401b038181021990931691831602179091558416600090815260066020908152604080832060ff871684528252808320338452909152812080543493509091906116619084906129b0565b90915550506040805160ff84168152346001600160401b03908116602083015242811682840152915133928616917ffd0601261c03ae01ff97fb309765ace55887b58df2eb77c55e458083aa90cd6f919081900360600190a350610c6c60018055565b6116cc6120e6565b6107d0816001600160401b0316111561171f5760405162461bcd60e51b81526020600482015260156024820152744665652063616e6e6f74206578636565642032302560581b60448201526064016107c4565b600480546fffffffffffffffff00000000000000001916600160401b6001600160401b038416908102919091179091556040519081527fd9386d0cbe8c4decdd8cd7dddd8eac91aab992e408a3cc858be221fd4cecfbba90602001610ccf565b6117876120e6565b610cea6000612189565b6117996120e6565b60028054610100600160a81b0319166101006001600160a01b038416908102919091179091556040519081527f3df77beb5db05fcdd70a30fc8adf3f83f9501b68579455adbd100b818094039490602001610ccf565b6117f76120e6565b610cea6121d9565b6118076120bc565b6001600160401b038082166000908152600560205260408120805490921690036118435760405162461bcd60e51b81526004016107c4906127f5565b600381015460ff16156118685760405162461bcd60e51b81526004016107c49061281d565b60048101546118b25760405162461bcd60e51b8152602060048201526016602482015275139bc81c995cdbdb1d5d1a5bdb881c1c9bdc1bdcd95960521b60448201526064016107c4565b60025461010090046001600160a01b03166119075760405162461bcd60e51b815260206004820152601560248201527413dc9858db19481b9bdd0818dbdb999a59dd5c9959605a1b60448201526064016107c4565b600254600482810154604051634124beef60e01b8152918201526101009091046001600160a01b031690634124beef90602401600060405180830381600087803b15801561195457600080fd5b505af1158015611968573d6000803e3d6000fd5b505060025460048481015460405163220c0a2160e21b815291820152600093508392506101009091046001600160a01b031690638830288490602401600060405180830381865afa1580156119c1573d6000803e3d6000fd5b505050506040513d6000823e601f3d908101601f191682016040526119e99190810190612a90565b99505050505050505050915081611a3a5760405162461bcd60e51b8152602060048201526015602482015274105cdcd95c9d1a5bdb881b9bdd081cd95d1d1b1959605a1b60448201526064016107c4565b60008082806020019051810190611a519190612b56565b5091509150856001600160401b0316826001600160401b031614611aac5760405162461bcd60e51b815260206004820152601260248201527109ac2e4d6cae840928840dad2e6dac2e8c6d60731b60448201526064016107c4565b600385018054600587018054600160ff19909116811790915561ffff1990911661010060ff85169081029190911782179092556004870154604080519384526020840191909152820152426001600160401b0390811660608301528716907ffd2fa1b727ea98bb20d901e164bff12e56b3e841ab8d13627cc7679983f25ff59060800160405180910390a25050505050610af260018055565b611b4d6120bc565b6001600160401b03808516600090815260056020526040812080549092169003611b895760405162461bcd60e51b81526004016107c4906127f5565b600381015460ff1615611bae5760405162461bcd60e51b81526004016107c49061281d565b60018101546001600160401b0316421015611c015760405162461bcd60e51b81526020600482015260136024820152724d61726b6574207374696c6c2061637469766560681b60448201526064016107c4565b600381015460ff62010000909104811690851610611c525760405162461bcd60e51b815260206004820152600e60248201526d24b73b30b634b21037b83a34b7b760911b60448201526064016107c4565b600481015415611ca45760405162461bcd60e51b815260206004820152601b60248201527f5265736f6c7574696f6e20616c72656164792070726f706f736564000000000060448201526064016107c4565b8054600160401b90046001600160a01b0316331480611ccd57506000546001600160a01b031633145b611d115760405162461bcd60e51b815260206004820152601560248201527427b7363c9031b932b0ba37b91037b91037bbb732b960591b60448201526064016107c4565b600354341015611d575760405162461bcd60e51b8152602060048201526011602482015270125b9cdd59999a58da595b9d08189bdb99607a1b60448201526064016107c4565b60025461010090046001600160a01b0316611e815760038101805460ff86166101000261ffff1990911617600117905560058101805460ff191690553415611e2357604051600090339034908381818185875af1925050503d8060008114611ddb576040519150601f19603f3d011682016040523d82523d6000602084013e611de0565b606091505b5050905080611e215760405162461bcd60e51b815260206004820152600d60248201526c1499599d5b990819985a5b1959609a1b60448201526064016107c4565b505b6040805160ff8616815260006020820181905281830152426001600160401b0390811660608301529151918716917ffd2fa1b727ea98bb20d901e164bff12e56b3e841ab8d13627cc7679983f25ff59181900360800190a250612072565b600085858585604051602001611e9a9493929190612bcd565b60408051808303601f1901815290829052600254600354636457c97960e01b84529193506000926101009091046001600160a01b031691636457c97991611f06908690339030908890611c2090829088906b082a6a68aa4a8bea8a4aaa8960a31b908390600401612c03565b60206040518083038185885af1158015611f24573d6000803e3d6000fd5b50505050506040513d601f19601f82011682018060405250810190611f499190612c8a565b600484018190556000818152600760205260409020805467ffffffffffffffff19166001600160401b038a1617905560035490915034111561201b576003546000903390611f979034612ca3565b604051600081818185875af1925050503d8060008114611fd3576040519150601f19603f3d011682016040523d82523d6000602084013e611fd8565b606091505b50509050806120195760405162461bcd60e51b815260206004820152600d60248201526c1499599d5b990819985a5b1959609a1b60448201526064016107c4565b505b336001600160a01b0316876001600160401b03167fad6459c0676dd896eed5e8b6a120a3b25e3e64f5d71c79cc0309794913e74de88884898942604051612066959493929190612cb6565b60405180910390a35050505b61207b60018055565b50505050565b6120896120e6565b6001600160a01b0381166120b357604051631e4fbdf760e01b8152600060048201526024016107c4565b610af281612189565b6002600154036120df57604051633ee5aeb560e01b815260040160405180910390fd5b6002600155565b6000546001600160a01b03163314610cea5760405163118cdaa760e01b81523360048201526024016107c4565b61211b612216565b6002805460ff191690557f5db9ee0a495bf2e6ff9c91a7834c1ba4fdd244a5e8aa4e537bd38aeae4b073aa335b6040516001600160a01b03909116815260200160405180910390a1565b60025460ff1615610cea5760405163d93c066560e01b815260040160405180910390fd5b600080546001600160a01b038381166001600160a01b0319831681178455604051919092169283917f8be0079c531659141344cd1fd0a4f28419497f9722a3daafe3b4186f6b6457e09190a35050565b6121e1612165565b6002805460ff191660011790557f62e78cea01bee320cd4e420270b5ea74000d11b0c9f74754ebdbfc544b05a2586121483390565b60025460ff16610cea57604051638dfc202b60e01b815260040160405180910390fd5b828054828255906000526020600020906003016004900481019282156122e15791602002820160005b838211156122ac57835183826101000a8154816001600160401b0302191690836001600160401b031602179055509260200192600801602081600701049283019260010302612262565b80156122df5782816101000a8154906001600160401b0302191690556008016020816007010492830192600103026122ac565b505b506122ed9291506122f1565b5090565b5b808211156122ed57600081556001016122f2565b6001600160401b0381168114610af257600080fd5b803561232681612306565b919050565b60006020828403121561233d57600080fd5b813561234881612306565b9392505050565b60ff81168114610af257600080fd5b6000806040838503121561237157600080fd5b823561237c81612306565b9150602083013561238c8161234f565b809150509250929050565b634e487b7160e01b600052602160045260246000fd5b600281106123cb57634e487b7160e01b600052602160045260246000fd5b9052565b6001600160a01b038a1681526001600160401b03898116602083015288166040820152861515606082015260ff8681166080830152851660a0820152610120810161241d60c08301866123ad565b8360e08301528215156101008301529a9950505050505050505050565b60006020828403121561244c57600080fd5b5035919050565b60008083601f84011261246557600080fd5b5081356001600160401b0381111561247c57600080fd5b60208301915083602082850101111561249457600080fd5b9250929050565b80356002811061232657600080fd5b60008060008060008060008060a0898b0312156124c657600080fd5b88356001600160401b03808211156124dd57600080fd5b6124e98c838d01612453565b909a50985060208b013591508082111561250257600080fd5b61250e8c838d01612453565b909850965060408b013591508082111561252757600080fd5b818b0191508b601f83011261253b57600080fd5b81358181111561254a57600080fd5b8c60208260051b850101111561255f57600080fd5b60208301965080955050505061257760608a0161231b565b915061258560808a0161249b565b90509295985092959890939650565b6001600160a01b0381168114610af257600080fd5b6000806000606084860312156125be57600080fd5b83356125c981612306565b925060208401356125d98161234f565b915060408401356125e981612594565b809150509250925092565b60006020828403121561260657600080fd5b813561234881612594565b6001600160401b038b811682526001600160a01b038b166020830152898116604083015288166060820152861515608082015260ff86811660a0830152851660c0820152610140810161266760e08301866123ad565b836101008301528215156101208301529b9a5050505050505050505050565b6000806000806060858703121561269c57600080fd5b84356126a781612306565b935060208501356126b78161234f565b925060408501356001600160401b038111156126d257600080fd5b6126de87828801612453565b95989497509550505050565b634e487b7160e01b600052603260045260246000fd5b634e487b7160e01b600052601160045260246000fd5b6001600160401b0381811683821602808216919082811461273957612739612700565b505092915050565b634e487b7160e01b600052601260045260246000fd5b60006001600160401b038084168061277157612771612741565b92169190910492915050565b6001600160401b0382811682821603908082111561279d5761279d612700565b5092915050565b80820281158282048414176127bb576127bb612700565b92915050565b6000826127d0576127d0612741565b500490565b6001600160401b0381811683821601908082111561279d5761279d612700565b6020808252600e908201526d125b9d985b1a59081b585c9ad95d60921b604082015260600190565b60208082526010908201526f105b1c9958591e481c995cdbdb1d995960821b604082015260600190565b60006001600160401b0380831681810361286357612863612700565b6001019392505050565b634e487b7160e01b600052604160045260246000fd5b81835281816020850137506000828201602090810191909152601f909101601f19169091010190565b60e0815260006128c060e083018c8e612883565b6020838203818501526128d4828c8e612883565b8481036040860152898152915080820160058a901b830182018b60005b8c81101561296057858303601f190184528135368f9003601e1901811261291757600080fd5b8e0185810190356001600160401b0381111561293257600080fd5b80360382131561294157600080fd5b61294c858284612883565b9587019594505050908401906001016128f1565b505060ff8a166060870152935061297692505050565b61298360808301866123ad565b6001600160401b03841660a08301526001600160401b03831660c08301529b9a5050505050505050505050565b808201808211156127bb576127bb612700565b805161232681612594565b805161232681612306565b60005b838110156129f45781810151838201526020016129dc565b50506000910152565b60006001600160401b0380841115612a1757612a1761286d565b604051601f8501601f19908116603f01168101908282118183101715612a3f57612a3f61286d565b81604052809350858152868686011115612a5857600080fd5b612a668660208301876129d9565b5050509392505050565b600082601f830112612a8157600080fd5b612348838351602085016129fd565b6000806000806000806000806000806101408b8d031215612ab057600080fd5b8a518015158114612ac057600080fd5b9950612ace60208c016129c3565b9850612adc60408c016129c3565b9750612aea60608c016129c3565b9650612af860808c016129ce565b9550612b0660a08c016129c3565b945060c08b0151935060e08b015192506101008b015191506101208b01516001600160401b03811115612b3857600080fd5b612b448d828e01612a70565b9150509295989b9194979a5092959850565b600080600060608486031215612b6b57600080fd5b8351612b7681612306565b6020850151909350612b878161234f565b60408501519092506001600160401b03811115612ba357600080fd5b8401601f81018613612bb457600080fd5b612bc3868251602084016129fd565b9150509250925092565b6001600160401b038516815260ff84166020820152606060408201526000612bf9606083018486612883565b9695505050505050565b610120815260008a5180610120840152612c2581610140850160208f016129d9565b6001600160a01b039a8b166020840152988a1660408301525095881660608701526001600160401b039490941660808601529190951660a084015260c083019490945260e0820193909352610100810192909252601f01601f19160161014001919050565b600060208284031215612c9c57600080fd5b5051919050565b818103818111156127bb576127bb612700565b60ff86168152846020820152608060408201526000612cd9608083018587612883565b90506001600160401b0383166060830152969550505050505056fea2646970667358221220d5d1509983d2b44e7ce457547adfa06ef42fca9b9c776fb830f154f259a79a7f64736f6c63430008140033","opcodes":"PUSH1 0x80 PUSH1 0x40 MSTORE PUSH7 0x2386F26FC10000 PUSH1 0x3 SSTORE PUSH1 0x4 DUP1 SLOAD PUSH1 0x1 PUSH1 0x1 PUSH1 0xC0 SHL SUB NOT AND PUSH23 0x38D7EA4C6800000000000000003E80000000000000001 OR SWAP1 SSTORE CALLVALUE DUP1 ISZERO PUSH3 0x45 JUMPI PUSH1 0x0 DUP1 REVERT JUMPDEST POP PUSH1 0x40 MLOAD PUSH3 0x2E93 CODESIZE SUB DUP1 PUSH3 0x2E93 DUP4 CODECOPY DUP2 ADD PUSH1 0x40 DUP2 SWAP1 MSTORE PUSH3 0x68 SWAP2 PUSH3 0x127 JUMP JUMPDEST CALLER DUP1 PUSH3 0x8F JUMPI PUSH1 0x40 MLOAD PUSH4 0x1E4FBDF7 PUSH1 0xE0 SHL DUP2 MSTORE PUSH1 0x0 PUSH1 0x4 DUP3 ADD MSTORE PUSH1 0x24 ADD PUSH1 0x40 MLOAD DUP1 SWAP2 SUB SWAP1 REVERT JUMPDEST PUSH3 0x9A DUP2 PUSH3 0xD7 JUMP JUMPDEST POP PUSH1 0x1 DUP1 SSTORE PUSH1 0x1 PUSH1 0x1 PUSH1 0xA0 SHL SUB DUP2 AND ISZERO PUSH3 0xD0 JUMPI PUSH1 0x2 DUP1 SLOAD PUSH2 0x100 PUSH1 0x1 PUSH1 0xA8 SHL SUB NOT AND PUSH2 0x100 PUSH1 0x1 PUSH1 0x1 PUSH1 0xA0 SHL SUB DUP5 AND MUL OR SWAP1 SSTORE JUMPDEST POP PUSH3 0x159 JUMP JUMPDEST PUSH1 0x0 DUP1 SLOAD PUSH1 0x1 PUSH1 0x1 PUSH1 0xA0 SHL SUB DUP4 DUP2 AND PUSH1 0x1 PUSH1 0x1 PUSH1 0xA0 SHL SUB NOT DUP4 AND DUP2 OR DUP5 SSTORE PUSH1 0x40 MLOAD SWAP2 SWAP1 SWAP3 AND SWAP3 DUP4 SWAP2 PUSH32 0x8BE0079C531659141344CD1FD0A4F28419497F9722A3DAAFE3B4186F6B6457E0 SWAP2 SWAP1 LOG3 POP POP JUMP JUMPDEST PUSH1 0x0 PUSH1 0x20 DUP3 DUP5 SUB SLT ISZERO PUSH3 0x13A JUMPI PUSH1 0x0 DUP1 REVERT JUMPDEST DUP2 MLOAD PUSH1 0x1 PUSH1 0x1 PUSH1 0xA0 SHL SUB DUP2 AND DUP2 EQ PUSH3 0x152 JUMPI PUSH1 0x0 DUP1 REVERT JUMPDEST SWAP4 SWAP3 POP POP POP JUMP JUMPDEST PUSH2 0x2D2A DUP1 PUSH3 0x169 PUSH1 0x0 CODECOPY PUSH1 0x0 RETURN INVALID PUSH1 0x80 PUSH1 0x40 MSTORE PUSH1 0x4 CALLDATASIZE LT PUSH2 0x1DC JUMPI PUSH1 0x0 CALLDATALOAD PUSH1 0xE0 SHR DUP1 PUSH4 0x6E8734BD GT PUSH2 0x102 JUMPI DUP1 PUSH4 0xA8E62338 GT PUSH2 0x95 JUMPI DUP1 PUSH4 0xDCE0B4E4 GT PUSH2 0x64 JUMPI DUP1 PUSH4 0xDCE0B4E4 EQ PUSH2 0x6D7 JUMPI DUP1 PUSH4 0xE79C7666 EQ PUSH2 0x6FE JUMPI DUP1 PUSH4 0xF2FDE38B EQ PUSH2 0x711 JUMPI DUP1 PUSH4 0xFF1FCA41 EQ PUSH2 0x731 JUMPI PUSH1 0x0 DUP1 REVERT JUMPDEST DUP1 PUSH4 0xA8E62338 EQ PUSH2 0x57D JUMPI DUP1 PUSH4 0xC48B3324 EQ PUSH2 0x59D JUMPI DUP1 PUSH4 0xC79FDAF9 EQ PUSH2 0x647 JUMPI DUP1 PUSH4 0xCFF5C599 EQ PUSH2 0x67D JUMPI PUSH1 0x0 DUP1 REVERT JUMPDEST DUP1 PUSH4 0x7BDEB4C4 GT PUSH2 0xD1 JUMPI DUP1 PUSH4 0x7BDEB4C4 EQ PUSH2 0x4F7 JUMPI DUP1 PUSH4 0x8456CB59 EQ PUSH2 0x50D JUMPI DUP1 PUSH4 0x8921A614 EQ PUSH2 0x522 JUMPI DUP1 PUSH4 0x8DA5CB5B EQ PUSH2 0x55F JUMPI PUSH1 0x0 DUP1 REVERT JUMPDEST DUP1 PUSH4 0x6E8734BD EQ PUSH2 0x456 JUMPI DUP1 PUSH4 0x70AF7DF6 EQ PUSH2 0x4A2 JUMPI DUP1 PUSH4 0x715018A6 EQ PUSH2 0x4C2 JUMPI DUP1 PUSH4 0x7ADBF973 EQ PUSH2 0x4D7 JUMPI PUSH1 0x0 DUP1 REVERT JUMPDEST DUP1 PUSH4 0x406EF2EF GT PUSH2 0x17A JUMPI DUP1 PUSH4 0x520D8DD0 GT PUSH2 0x149 JUMPI DUP1 PUSH4 0x520D8DD0 EQ PUSH2 0x3F1 JUMPI DUP1 PUSH4 0x587F5ED7 EQ PUSH2 0x404 JUMPI DUP1 PUSH4 0x5C975ABB EQ PUSH2 0x42B JUMPI DUP1 PUSH4 0x6A2D2A67 EQ PUSH2 0x443 JUMPI PUSH1 0x0 DUP1 REVERT JUMPDEST DUP1 PUSH4 0x406EF2EF EQ PUSH2 0x386 JUMPI DUP1 PUSH4 0x476343EE EQ PUSH2 0x3A6 JUMPI DUP1 PUSH4 0x4F39B4EF EQ PUSH2 0x3BB JUMPI DUP1 PUSH4 0x50D86F0C EQ PUSH2 0x3D1 JUMPI PUSH1 0x0 DUP1 REVERT JUMPDEST DUP1 PUSH4 0x201D2F2B GT PUSH2 0x1B6 JUMPI DUP1 PUSH4 0x201D2F2B EQ PUSH2 0x24A JUMPI DUP1 PUSH4 0x22DCD13E EQ PUSH2 0x2FC JUMPI DUP1 PUSH4 0x3E08D254 EQ PUSH2 0x33B JUMPI DUP1 PUSH4 0x3F4BA83A EQ PUSH2 0x371 JUMPI PUSH1 0x0 DUP1 REVERT JUMPDEST DUP1 PUSH4 0x8F7ED50 EQ PUSH2 0x1E8 JUMPI DUP1 PUSH4 0x9D5E03D EQ PUSH2 0x20A JUMPI DUP1 PUSH4 0x1A12E7A9 EQ PUSH2 0x22A JUMPI PUSH1 0x0 DUP1 REVERT JUMPDEST CALLDATASIZE PUSH2 0x1E3 JUMPI STOP JUMPDEST PUSH1 0x0 DUP1 REVERT JUMPDEST CALLVALUE DUP1 ISZERO PUSH2 0x1F4 JUMPI PUSH1 0x0 DUP1 REVERT JUMPDEST POP PUSH2 0x208 PUSH2 0x203 CALLDATASIZE PUSH1 0x4 PUSH2 0x232B JUMP JUMPDEST PUSH2 0x754 JUMP JUMPDEST STOP JUMPDEST CALLVALUE DUP1 ISZERO PUSH2 0x216 JUMPI PUSH1 0x0 DUP1 REVERT JUMPDEST POP PUSH2 0x208 PUSH2 0x225 CALLDATASIZE PUSH1 0x4 PUSH2 0x235E JUMP JUMPDEST PUSH2 0xAF5 JUMP JUMPDEST CALLVALUE DUP1 ISZERO PUSH2 0x236 JUMPI PUSH1 0x0 DUP1 REVERT JUMPDEST POP PUSH2 0x208 PUSH2 0x245 CALLDATASIZE PUSH1 0x4 PUSH2 0x232B JUMP JUMPDEST PUSH2 0xC70 JUMP JUMPDEST CALLVALUE DUP1 ISZERO PUSH2 0x256 JUMPI PUSH1 0x0 DUP1 REVERT JUMPDEST POP PUSH2 0x2DE PUSH2 0x265 CALLDATASIZE PUSH1 0x4 PUSH2 0x232B JUMP JUMPDEST PUSH1 0x1 PUSH1 0x1 PUSH1 0x40 SHL SUB SWAP1 DUP2 AND PUSH1 0x0 SWAP1 DUP2 MSTORE PUSH1 0x5 PUSH1 0x20 DUP2 SWAP1 MSTORE PUSH1 0x40 SWAP1 SWAP2 KECCAK256 DUP1 SLOAD PUSH1 0x1 DUP3 ADD SLOAD PUSH1 0x3 DUP4 ADD SLOAD PUSH1 0x4 DUP5 ADD SLOAD SWAP4 SWAP1 SWAP5 ADD SLOAD PUSH1 0x1 PUSH1 0x40 SHL SWAP3 DUP4 SWAP1 DIV PUSH1 0x1 PUSH1 0x1 PUSH1 0xA0 SHL SUB AND SWAP7 DUP3 DUP8 AND SWAP7 SWAP4 SWAP1 SWAP3 DIV SWAP1 SWAP3 AND SWAP4 PUSH1 0xFF DUP1 DUP3 AND SWAP5 PUSH2 0x100 DUP4 DIV DUP3 AND SWAP5 PUSH3 0x10000 DUP5 DIV DUP4 AND SWAP5 PUSH4 0x1000000 SWAP1 SWAP5 DIV DUP4 AND SWAP4 SWAP2 SWAP3 AND SWAP1 JUMP JUMPDEST PUSH1 0x40 MLOAD PUSH2 0x2F3 SWAP10 SWAP9 SWAP8 SWAP7 SWAP6 SWAP5 SWAP4 SWAP3 SWAP2 SWAP1 PUSH2 0x23CF JUMP JUMPDEST PUSH1 0x40 MLOAD DUP1 SWAP2 SUB SWAP1 RETURN JUMPDEST CALLVALUE DUP1 ISZERO PUSH2 0x308 JUMPI PUSH1 0x0 DUP1 REVERT JUMPDEST POP PUSH1 0x4 SLOAD PUSH2 0x323 SWAP1 PUSH1 0x1 PUSH1 0x40 SHL SWAP1 DIV PUSH1 0x1 PUSH1 0x1 PUSH1 0x40 SHL SUB AND DUP2 JUMP JUMPDEST PUSH1 0x40 MLOAD PUSH1 0x1 PUSH1 0x1 PUSH1 0x40 SHL SUB SWAP1 SWAP2 AND DUP2 MSTORE PUSH1 0x20 ADD PUSH2 0x2F3 JUMP JUMPDEST CALLVALUE DUP1 ISZERO PUSH2 0x347 JUMPI PUSH1 0x0 DUP1 REVERT JUMPDEST POP PUSH2 0x361 PUSH1 0x2 SLOAD PUSH2 0x100 SWAP1 DIV PUSH1 0x1 PUSH1 0x1 PUSH1 0xA0 SHL SUB AND ISZERO ISZERO SWAP1 JUMP JUMPDEST PUSH1 0x40 MLOAD SWAP1 ISZERO ISZERO DUP2 MSTORE PUSH1 0x20 ADD PUSH2 0x2F3 JUMP JUMPDEST CALLVALUE DUP1 ISZERO PUSH2 0x37D JUMPI PUSH1 0x0 DUP1 REVERT JUMPDEST POP PUSH2 0x208 PUSH2 0xCDA JUMP JUMPDEST CALLVALUE DUP1 ISZERO PUSH2 0x392 JUMPI PUSH1 0x0 DUP1 REVERT JUMPDEST POP PUSH1 0x4 SLOAD PUSH2 0x323 SWAP1 PUSH1 0x1 PUSH1 0x1 PUSH1 0x40 SHL SUB AND DUP2 JUMP JUMPDEST CALLVALUE DUP1 ISZERO PUSH2 0x3B2 JUMPI PUSH1 0x0 DUP1 REVERT JUMPDEST POP PUSH2 0x208 PUSH2 0xCEC JUMP JUMPDEST CALLVALUE DUP1 ISZERO PUSH2 0x3C7 JUMPI PUSH1 0x0 DUP1 REVERT JUMPDEST POP PUSH2 0x323 PUSH2 0x1C20 DUP2 JUMP JUMPDEST CALLVALUE DUP1 ISZERO PUSH2 0x3DD JUMPI PUSH1 0x0 DUP1 REVERT JUMPDEST POP PUSH2 0x208 PUSH2 0x3EC CALLDATASIZE PUSH1 0x4 PUSH2 0x243A JUMP JUMPDEST PUSH2 0xE5D JUMP JUMPDEST PUSH2 0x323 PUSH2 0x3FF CALLDATASIZE PUSH1 0x4 PUSH2 0x24AA JUMP JUMPDEST PUSH2 0xE9A JUMP JUMPDEST CALLVALUE DUP1 ISZERO PUSH2 0x410 JUMPI PUSH1 0x0 DUP1 REVERT JUMPDEST POP PUSH1 0x4 SLOAD PUSH2 0x323 SWAP1 PUSH1 0x1 PUSH1 0xC0 SHL SWAP1 DIV PUSH1 0x1 PUSH1 0x1 PUSH1 0x40 SHL SUB AND DUP2 JUMP JUMPDEST CALLVALUE DUP1 ISZERO PUSH2 0x437 JUMPI PUSH1 0x0 DUP1 REVERT JUMPDEST POP PUSH1 0x2 SLOAD PUSH1 0xFF AND PUSH2 0x361 JUMP JUMPDEST PUSH2 0x208 PUSH2 0x451 CALLDATASIZE PUSH1 0x4 PUSH2 0x235E JUMP JUMPDEST PUSH2 0x13B4 JUMP JUMPDEST CALLVALUE DUP1 ISZERO PUSH2 0x462 JUMPI PUSH1 0x0 DUP1 REVERT JUMPDEST POP PUSH2 0x494 PUSH2 0x471 CALLDATASIZE PUSH1 0x4 PUSH2 0x25A9 JUMP JUMPDEST PUSH1 0x6 PUSH1 0x20 SWAP1 DUP2 MSTORE PUSH1 0x0 SWAP4 DUP5 MSTORE PUSH1 0x40 DUP1 DUP6 KECCAK256 DUP3 MSTORE SWAP3 DUP5 MSTORE DUP3 DUP5 KECCAK256 SWAP1 MSTORE DUP3 MSTORE SWAP1 KECCAK256 SLOAD DUP2 JUMP JUMPDEST PUSH1 0x40 MLOAD SWAP1 DUP2 MSTORE PUSH1 0x20 ADD PUSH2 0x2F3 JUMP JUMPDEST CALLVALUE DUP1 ISZERO PUSH2 0x4AE JUMPI PUSH1 0x0 DUP1 REVERT JUMPDEST POP PUSH2 0x208 PUSH2 0x4BD CALLDATASIZE PUSH1 0x4 PUSH2 0x232B JUMP JUMPDEST PUSH2 0x16C4 JUMP JUMPDEST CALLVALUE DUP1 ISZERO PUSH2 0x4CE JUMPI PUSH1 0x0 DUP1 REVERT JUMPDEST POP PUSH2 0x208 PUSH2 0x177F JUMP JUMPDEST CALLVALUE DUP1 ISZERO PUSH2 0x4E3 JUMPI PUSH1 0x0 DUP1 REVERT JUMPDEST POP PUSH2 0x208 PUSH2 0x4F2 CALLDATASIZE PUSH1 0x4 PUSH2 0x25F4 JUMP JUMPDEST PUSH2 0x1791 JUMP JUMPDEST CALLVALUE DUP1 ISZERO PUSH2 0x503 JUMPI PUSH1 0x0 DUP1 REVERT JUMPDEST POP PUSH2 0x494 PUSH1 0x3 SLOAD DUP2 JUMP JUMPDEST CALLVALUE DUP1 ISZERO PUSH2 0x519 JUMPI PUSH1 0x0 DUP1 REVERT JUMPDEST POP PUSH2 0x208 PUSH2 0x17EF JUMP JUMPDEST CALLVALUE DUP1 ISZERO PUSH2 0x52E JUMPI PUSH1 0x0 DUP1 REVERT JUMPDEST POP PUSH1 0x2 SLOAD PUSH2 0x547 SWAP1 PUSH2 0x100 SWAP1 DIV PUSH1 0x1 PUSH1 0x1 PUSH1 0xA0 SHL SUB AND DUP2 JUMP JUMPDEST PUSH1 0x40 MLOAD PUSH1 0x1 PUSH1 0x1 PUSH1 0xA0 SHL SUB SWAP1 SWAP2 AND DUP2 MSTORE PUSH1 0x20 ADD PUSH2 0x2F3 JUMP JUMPDEST CALLVALUE DUP1 ISZERO PUSH2 0x56B JUMPI PUSH1 0x0 DUP1 REVERT JUMPDEST POP PUSH1 0x0 SLOAD PUSH1 0x1 PUSH1 0x1 PUSH1 0xA0 SHL SUB AND PUSH2 0x547 JUMP JUMPDEST CALLVALUE DUP1 ISZERO PUSH2 0x589 JUMPI PUSH1 0x0 DUP1 REVERT JUMPDEST POP PUSH2 0x208 PUSH2 0x598 CALLDATASIZE PUSH1 0x4 PUSH2 0x232B JUMP JUMPDEST PUSH2 0x17FF JUMP JUMPDEST CALLVALUE DUP1 ISZERO PUSH2 0x5A9 JUMPI PUSH1 0x0 DUP1 REVERT JUMPDEST POP PUSH2 0x631 PUSH2 0x5B8 CALLDATASIZE PUSH1 0x4 PUSH2 0x232B JUMP JUMPDEST PUSH1 0x5 PUSH1 0x20 DUP2 SWAP1 MSTORE PUSH1 0x0 SWAP2 DUP3 MSTORE PUSH1 0x40 SWAP1 SWAP2 KECCAK256 DUP1 SLOAD PUSH1 0x1 DUP3 ADD SLOAD PUSH1 0x3 DUP4 ADD SLOAD PUSH1 0x4 DUP5 ADD SLOAD SWAP4 SWAP1 SWAP5 ADD SLOAD PUSH1 0x1 PUSH1 0x1 PUSH1 0x40 SHL SUB DUP1 DUP5 AND SWAP6 PUSH1 0x1 PUSH1 0x1 PUSH1 0xA0 SHL SUB PUSH1 0x1 PUSH1 0x40 SHL SWAP6 DUP7 SWAP1 DIV AND SWAP6 DUP5 DUP4 AND SWAP6 SWAP1 SWAP5 DIV SWAP1 SWAP2 AND SWAP3 PUSH1 0xFF DUP1 DUP4 AND SWAP4 PUSH2 0x100 DUP5 DIV DUP3 AND SWAP4 PUSH3 0x10000 DUP2 DIV DUP4 AND SWAP4 PUSH4 0x1000000 SWAP1 SWAP2 DIV DUP4 AND SWAP3 SWAP1 SWAP2 AND DUP11 JUMP JUMPDEST PUSH1 0x40 MLOAD PUSH2 0x2F3 SWAP11 SWAP10 SWAP9 SWAP8 SWAP7 SWAP6 SWAP5 SWAP4 SWAP3 SWAP2 SWAP1 PUSH2 0x2611 JUMP JUMPDEST CALLVALUE DUP1 ISZERO PUSH2 0x653 JUMPI PUSH1 0x0 DUP1 REVERT JUMPDEST POP PUSH2 0x323 PUSH2 0x662 CALLDATASIZE PUSH1 0x4 PUSH2 0x243A JUMP JUMPDEST PUSH1 0x7 PUSH1 0x20 MSTORE PUSH1 0x0 SWAP1 DUP2 MSTORE PUSH1 0x40 SWAP1 KECCAK256 SLOAD PUSH1 0x1 PUSH1 0x1 PUSH1 0x40 SHL SUB AND DUP2 JUMP JUMPDEST CALLVALUE DUP1 ISZERO PUSH2 0x689 JUMPI PUSH1 0x0 DUP1 REVERT JUMPDEST POP PUSH2 0x494 PUSH2 0x698 CALLDATASIZE PUSH1 0x4 PUSH2 0x25A9 JUMP JUMPDEST PUSH1 0x1 PUSH1 0x1 PUSH1 0x40 SHL SUB DUP4 AND PUSH1 0x0 SWAP1 DUP2 MSTORE PUSH1 0x6 PUSH1 0x20 SWAP1 DUP2 MSTORE PUSH1 0x40 DUP1 DUP4 KECCAK256 PUSH1 0xFF DUP7 AND DUP5 MSTORE DUP3 MSTORE DUP1 DUP4 KECCAK256 PUSH1 0x1 PUSH1 0x1 PUSH1 0xA0 SHL SUB DUP6 AND DUP5 MSTORE SWAP1 SWAP2 MSTORE SWAP1 KECCAK256 SLOAD SWAP4 SWAP3 POP POP POP JUMP JUMPDEST CALLVALUE DUP1 ISZERO PUSH2 0x6E3 JUMPI PUSH1 0x0 DUP1 REVERT JUMPDEST POP PUSH1 0x4 SLOAD PUSH2 0x323 SWAP1 PUSH1 0x1 PUSH1 0x80 SHL SWAP1 DIV PUSH1 0x1 PUSH1 0x1 PUSH1 0x40 SHL SUB AND DUP2 JUMP JUMPDEST PUSH2 0x208 PUSH2 0x70C CALLDATASIZE PUSH1 0x4 PUSH2 0x2686 JUMP JUMPDEST PUSH2 0x1B45 JUMP JUMPDEST CALLVALUE DUP1 ISZERO PUSH2 0x71D JUMPI PUSH1 0x0 DUP1 REVERT JUMPDEST POP PUSH2 0x208 PUSH2 0x72C CALLDATASIZE PUSH1 0x4 PUSH2 0x25F4 JUMP JUMPDEST PUSH2 0x2081 JUMP JUMPDEST CALLVALUE DUP1 ISZERO PUSH2 0x73D JUMPI PUSH1 0x0 DUP1 REVERT JUMPDEST POP PUSH2 0x494 PUSH12 0x82A6A68AA4A8BEA8A4AAA89 PUSH1 0xA3 SHL DUP2 JUMP JUMPDEST PUSH2 0x75C PUSH2 0x20BC JUMP JUMPDEST PUSH1 0x1 PUSH1 0x1 PUSH1 0x40 SHL SUB DUP2 AND PUSH1 0x0 SWAP1 DUP2 MSTORE PUSH1 0x5 PUSH1 0x20 MSTORE PUSH1 0x40 SWAP1 KECCAK256 PUSH1 0x3 DUP2 ADD SLOAD PUSH1 0xFF AND PUSH2 0x7CD JUMPI PUSH1 0x40 MLOAD PUSH3 0x461BCD PUSH1 0xE5 SHL DUP2 MSTORE PUSH1 0x20 PUSH1 0x4 DUP3 ADD MSTORE PUSH1 0x17 PUSH1 0x24 DUP3 ADD MSTORE PUSH32 0x4D61726B6574206E6F74207265736F6C76656420796574000000000000000000 PUSH1 0x44 DUP3 ADD MSTORE PUSH1 0x64 ADD JUMPDEST PUSH1 0x40 MLOAD DUP1 SWAP2 SUB SWAP1 REVERT JUMPDEST PUSH1 0x3 DUP2 ADD SLOAD PUSH1 0x1 PUSH1 0x1 PUSH1 0x40 SHL SUB DUP4 AND PUSH1 0x0 SWAP1 DUP2 MSTORE PUSH1 0x6 PUSH1 0x20 SWAP1 DUP2 MSTORE PUSH1 0x40 DUP1 DUP4 KECCAK256 PUSH2 0x100 SWAP1 SWAP5 DIV PUSH1 0xFF AND DUP1 DUP5 MSTORE SWAP4 DUP3 MSTORE DUP1 DUP4 KECCAK256 CALLER DUP5 MSTORE SWAP1 SWAP2 MSTORE SWAP1 KECCAK256 SLOAD DUP1 PUSH2 0x855 JUMPI PUSH1 0x40 MLOAD PUSH3 0x461BCD PUSH1 0xE5 SHL DUP2 MSTORE PUSH1 0x20 PUSH1 0x4 DUP3 ADD MSTORE PUSH1 0x18 PUSH1 0x24 DUP3 ADD MSTORE PUSH32 0x4E6F2077696E6E696E67206265747320746F20636C61696D0000000000000000 PUSH1 0x44 DUP3 ADD MSTORE PUSH1 0x64 ADD PUSH2 0x7C4 JUMP JUMPDEST PUSH1 0x1 PUSH1 0x1 PUSH1 0x40 SHL SUB DUP5 AND PUSH1 0x0 SWAP1 DUP2 MSTORE PUSH1 0x6 PUSH1 0x20 SWAP1 DUP2 MSTORE PUSH1 0x40 DUP1 DUP4 KECCAK256 PUSH1 0xFF DUP7 AND DUP1 DUP6 MSTORE SWAP1 DUP4 MSTORE DUP2 DUP5 KECCAK256 CALLER DUP6 MSTORE SWAP1 SWAP3 MSTORE DUP3 KECCAK256 DUP3 SWAP1 SSTORE PUSH1 0x2 DUP6 ADD DUP1 SLOAD SWAP1 SWAP2 SWAP1 DUP2 LT PUSH2 0x89F JUMPI PUSH2 0x89F PUSH2 0x26EA JUMP JUMPDEST PUSH1 0x0 SWAP2 DUP3 MSTORE PUSH1 0x20 SWAP1 SWAP2 KECCAK256 PUSH1 0x4 DUP3 DIV ADD SLOAD PUSH1 0x1 DUP7 ADD SLOAD PUSH1 0x3 SWAP1 SWAP3 AND PUSH1 0x8 MUL PUSH2 0x100 EXP SWAP1 DIV PUSH1 0x1 PUSH1 0x1 PUSH1 0x40 SHL SUB SWAP1 DUP2 AND SWAP3 POP PUSH1 0x1 PUSH1 0x40 SHL SWAP1 SWAP2 DIV AND DUP2 PUSH2 0x91C JUMPI PUSH1 0x40 MLOAD PUSH3 0x461BCD PUSH1 0xE5 SHL DUP2 MSTORE PUSH1 0x20 PUSH1 0x4 DUP3 ADD MSTORE PUSH1 0x14 PUSH1 0x24 DUP3 ADD MSTORE PUSH20 0x21B934BA34B1B0B6103637B3B4B19032B93937B9 PUSH1 0x61 SHL PUSH1 0x44 DUP3 ADD MSTORE PUSH1 0x64 ADD PUSH2 0x7C4 JUMP JUMPDEST PUSH1 0x4 SLOAD PUSH1 0x0 SWAP1 PUSH2 0x2710 SWAP1 PUSH2 0x940 SWAP1 PUSH1 0x1 PUSH1 0x40 SHL SWAP1 DIV PUSH1 0x1 PUSH1 0x1 PUSH1 0x40 SHL SUB AND DUP5 PUSH2 0x2716 JUMP JUMPDEST PUSH2 0x94A SWAP2 SWAP1 PUSH2 0x2757 JUMP JUMPDEST SWAP1 POP PUSH1 0x0 PUSH2 0x958 DUP3 DUP5 PUSH2 0x277D JUMP JUMPDEST SWAP1 POP PUSH1 0x0 DUP5 PUSH1 0x1 PUSH1 0x1 PUSH1 0x40 SHL SUB AND DUP3 PUSH1 0x1 PUSH1 0x1 PUSH1 0x40 SHL SUB AND DUP8 PUSH2 0x97B SWAP2 SWAP1 PUSH2 0x27A4 JUMP JUMPDEST PUSH2 0x985 SWAP2 SWAP1 PUSH2 0x27C1 JUMP JUMPDEST SWAP1 POP PUSH1 0x0 DUP6 PUSH1 0x1 PUSH1 0x1 PUSH1 0x40 SHL SUB AND DUP5 PUSH1 0x1 PUSH1 0x1 PUSH1 0x40 SHL SUB AND DUP9 PUSH2 0x9A8 SWAP2 SWAP1 PUSH2 0x27A4 JUMP JUMPDEST PUSH2 0x9B2 SWAP2 SWAP1 PUSH2 0x27C1 JUMP JUMPDEST SWAP1 POP DUP1 PUSH1 0x4 PUSH1 0x18 DUP3 DUP3 DUP3 SWAP1 SLOAD SWAP1 PUSH2 0x100 EXP SWAP1 DIV PUSH1 0x1 PUSH1 0x1 PUSH1 0x40 SHL SUB AND PUSH2 0x9D8 SWAP2 SWAP1 PUSH2 0x27D5 JUMP JUMPDEST SWAP3 POP PUSH2 0x100 EXP DUP2 SLOAD DUP2 PUSH1 0x1 PUSH1 0x1 PUSH1 0x40 SHL SUB MUL NOT AND SWAP1 DUP4 PUSH1 0x1 PUSH1 0x1 PUSH1 0x40 SHL SUB AND MUL OR SWAP1 SSTORE POP PUSH1 0x0 CALLER PUSH1 0x1 PUSH1 0x1 PUSH1 0xA0 SHL SUB AND DUP4 PUSH1 0x40 MLOAD PUSH1 0x0 PUSH1 0x40 MLOAD DUP1 DUP4 SUB DUP2 DUP6 DUP8 GAS CALL SWAP3 POP POP POP RETURNDATASIZE DUP1 PUSH1 0x0 DUP2 EQ PUSH2 0xA49 JUMPI PUSH1 0x40 MLOAD SWAP2 POP PUSH1 0x1F NOT PUSH1 0x3F RETURNDATASIZE ADD AND DUP3 ADD PUSH1 0x40 MSTORE RETURNDATASIZE DUP3 MSTORE RETURNDATASIZE PUSH1 0x0 PUSH1 0x20 DUP5 ADD RETURNDATACOPY PUSH2 0xA4E JUMP JUMPDEST PUSH1 0x60 SWAP2 POP JUMPDEST POP POP SWAP1 POP DUP1 PUSH2 0xA95 JUMPI PUSH1 0x40 MLOAD PUSH3 0x461BCD PUSH1 0xE5 SHL DUP2 MSTORE PUSH1 0x20 PUSH1 0x4 DUP3 ADD MSTORE PUSH1 0x13 PUSH1 0x24 DUP3 ADD MSTORE PUSH19 0x115512081D1C985B9CD9995C8819985A5B1959 PUSH1 0x6A SHL PUSH1 0x44 DUP3 ADD MSTORE PUSH1 0x64 ADD PUSH2 0x7C4 JUMP JUMPDEST PUSH1 0x40 DUP1 MLOAD PUSH1 0x1 PUSH1 0x1 PUSH1 0x40 SHL SUB DUP6 DUP2 AND DUP3 MSTORE TIMESTAMP DUP2 AND PUSH1 0x20 DUP4 ADD MSTORE CALLER SWAP3 SWAP1 DUP15 AND SWAP2 PUSH32 0x3520BD0D212203188671828C1A9B17DB4C98A90223D58CC9ACE784647B01A8CA SWAP2 ADD PUSH1 0x40 MLOAD DUP1 SWAP2 SUB SWAP1 LOG3 POP POP POP POP POP POP POP POP POP POP PUSH2 0xAF2 PUSH1 0x1 DUP1 SSTORE JUMP JUMPDEST POP JUMP JUMPDEST PUSH2 0xAFD PUSH2 0x20E6 JUMP JUMPDEST PUSH2 0xB05 PUSH2 0x20BC JUMP JUMPDEST PUSH1 0x1 PUSH1 0x1 PUSH1 0x40 SHL SUB DUP1 DUP4 AND PUSH1 0x0 SWAP1 DUP2 MSTORE PUSH1 0x5 PUSH1 0x20 MSTORE PUSH1 0x40 DUP2 KECCAK256 DUP1 SLOAD SWAP1 SWAP3 AND SWAP1 SUB PUSH2 0xB41 JUMPI PUSH1 0x40 MLOAD PUSH3 0x461BCD PUSH1 0xE5 SHL DUP2 MSTORE PUSH1 0x4 ADD PUSH2 0x7C4 SWAP1 PUSH2 0x27F5 JUMP JUMPDEST PUSH1 0x3 DUP2 ADD SLOAD PUSH1 0xFF AND ISZERO PUSH2 0xB66 JUMPI PUSH1 0x40 MLOAD PUSH3 0x461BCD PUSH1 0xE5 SHL DUP2 MSTORE PUSH1 0x4 ADD PUSH2 0x7C4 SWAP1 PUSH2 0x281D JUMP JUMPDEST PUSH1 0x2 SLOAD PUSH2 0x100 SWAP1 DIV PUSH1 0x1 PUSH1 0x1 PUSH1 0xA0 SHL SUB AND ISZERO PUSH2 0xBE2 JUMPI PUSH1 0x1 DUP2 ADD SLOAD PUSH2 0xB97 SWAP1 PUSH1 0x1 PUSH1 0x1 PUSH1 0x40 SHL SUB AND PUSH3 0x93A80 PUSH2 0x27D5 JUMP JUMPDEST PUSH1 0x1 PUSH1 0x1 PUSH1 0x40 SHL SUB AND TIMESTAMP LT ISZERO PUSH2 0xBE2 JUMPI PUSH1 0x40 MLOAD PUSH3 0x461BCD PUSH1 0xE5 SHL DUP2 MSTORE PUSH1 0x20 PUSH1 0x4 DUP3 ADD MSTORE PUSH1 0x10 PUSH1 0x24 DUP3 ADD MSTORE PUSH16 0x4D757374207761697420372064617973 PUSH1 0x80 SHL PUSH1 0x44 DUP3 ADD MSTORE PUSH1 0x64 ADD PUSH2 0x7C4 JUMP JUMPDEST PUSH1 0x3 DUP2 ADD DUP1 SLOAD PUSH1 0xFF DUP5 AND PUSH2 0x100 DUP2 MUL PUSH2 0xFFFF NOT SWAP1 SWAP3 AND SWAP2 SWAP1 SWAP2 OR PUSH1 0x1 OR SWAP1 SWAP2 SSTORE PUSH1 0x5 DUP3 ADD DUP1 SLOAD PUSH1 0xFF NOT AND SWAP1 SSTORE PUSH1 0x40 DUP1 MLOAD SWAP2 DUP3 MSTORE PUSH1 0x0 PUSH1 0x20 DUP4 ADD DUP2 SWAP1 MSTORE SWAP1 DUP3 ADD MSTORE PUSH1 0x1 PUSH1 0x1 PUSH1 0x40 SHL SUB TIMESTAMP DUP2 AND PUSH1 0x60 DUP4 ADD MSTORE DUP5 AND SWAP1 PUSH32 0xFD2FA1B727EA98BB20D901E164BFF12E56B3E841AB8D13627CC7679983F25FF5 SWAP1 PUSH1 0x80 ADD PUSH1 0x40 MLOAD DUP1 SWAP2 SUB SWAP1 LOG2 POP PUSH2 0xC6C PUSH1 0x1 DUP1 SSTORE JUMP JUMPDEST POP POP JUMP JUMPDEST PUSH2 0xC78 PUSH2 0x20E6 JUMP JUMPDEST PUSH1 0x4 DUP1 SLOAD PUSH8 0xFFFFFFFFFFFFFFFF PUSH1 0x80 SHL NOT AND PUSH1 0x1 PUSH1 0x80 SHL PUSH1 0x1 PUSH1 0x1 PUSH1 0x40 SHL SUB DUP5 AND SWAP1 DUP2 MUL SWAP2 SWAP1 SWAP2 OR SWAP1 SWAP2 SSTORE PUSH1 0x40 MLOAD SWAP1 DUP2 MSTORE PUSH32 0x5167549AE119AC4ADDEB35B8CE4990653FBCB9808333DF7A220528CECE0811F6 SWAP1 PUSH1 0x20 ADD JUMPDEST PUSH1 0x40 MLOAD DUP1 SWAP2 SUB SWAP1 LOG1 POP JUMP JUMPDEST PUSH2 0xCE2 PUSH2 0x20E6 JUMP JUMPDEST PUSH2 0xCEA PUSH2 0x2113 JUMP JUMPDEST JUMP JUMPDEST PUSH2 0xCF4 PUSH2 0x20E6 JUMP JUMPDEST PUSH2 0xCFC PUSH2 0x20BC JUMP JUMPDEST PUSH1 0x4 SLOAD PUSH1 0x1 PUSH1 0xC0 SHL SWAP1 DIV PUSH1 0x1 PUSH1 0x1 PUSH1 0x40 SHL SUB AND DUP1 PUSH2 0xD52 JUMPI PUSH1 0x40 MLOAD PUSH3 0x461BCD PUSH1 0xE5 SHL DUP2 MSTORE PUSH1 0x20 PUSH1 0x4 DUP3 ADD MSTORE PUSH1 0x13 PUSH1 0x24 DUP3 ADD MSTORE PUSH19 0x4E6F206665657320746F207769746864726177 PUSH1 0x68 SHL PUSH1 0x44 DUP3 ADD MSTORE PUSH1 0x64 ADD PUSH2 0x7C4 JUMP JUMPDEST PUSH1 0x4 DUP1 SLOAD PUSH1 0x1 PUSH1 0x1 PUSH1 0xC0 SHL SUB AND SWAP1 SSTORE PUSH1 0x0 DUP1 SLOAD PUSH1 0x40 MLOAD PUSH1 0x1 PUSH1 0x1 PUSH1 0xA0 SHL SUB SWAP1 SWAP2 AND SWAP1 DUP4 SWAP1 DUP4 DUP2 DUP2 DUP2 DUP6 DUP8 GAS CALL SWAP3 POP POP POP RETURNDATASIZE DUP1 PUSH1 0x0 DUP2 EQ PUSH2 0xDAE JUMPI PUSH1 0x40 MLOAD SWAP2 POP PUSH1 0x1F NOT PUSH1 0x3F RETURNDATASIZE ADD AND DUP3 ADD PUSH1 0x40 MSTORE RETURNDATASIZE DUP3 MSTORE RETURNDATASIZE PUSH1 0x0 PUSH1 0x20 DUP5 ADD RETURNDATACOPY PUSH2 0xDB3 JUMP JUMPDEST PUSH1 0x60 SWAP2 POP JUMPDEST POP POP SWAP1 POP DUP1 PUSH2 0xDF6 JUMPI PUSH1 0x40 MLOAD PUSH3 0x461BCD PUSH1 0xE5 SHL DUP2 MSTORE PUSH1 0x20 PUSH1 0x4 DUP3 ADD MSTORE PUSH1 0xF PUSH1 0x24 DUP3 ADD MSTORE PUSH15 0x151C985B9CD9995C8819985A5B1959 PUSH1 0x8A SHL PUSH1 0x44 DUP3 ADD MSTORE PUSH1 0x64 ADD PUSH2 0x7C4 JUMP JUMPDEST PUSH32 0xBD73D7D83EF852D37FEFB08CBFCA5F3184D4180ED23F1102CF123C46D9EF8DC2 PUSH2 0xE29 PUSH1 0x0 SLOAD PUSH1 0x1 PUSH1 0x1 PUSH1 0xA0 SHL SUB AND SWAP1 JUMP JUMPDEST PUSH1 0x40 DUP1 MLOAD PUSH1 0x1 PUSH1 0x1 PUSH1 0xA0 SHL SUB SWAP1 SWAP3 AND DUP3 MSTORE PUSH1 0x1 PUSH1 0x1 PUSH1 0x40 SHL SUB DUP6 AND PUSH1 0x20 DUP4 ADD MSTORE ADD PUSH1 0x40 MLOAD DUP1 SWAP2 SUB SWAP1 LOG1 POP POP PUSH2 0xCEA PUSH1 0x1 DUP1 SSTORE JUMP JUMPDEST PUSH2 0xE65 PUSH2 0x20E6 JUMP JUMPDEST PUSH1 0x3 DUP2 SWAP1 SSTORE PUSH1 0x40 MLOAD DUP2 DUP2 MSTORE PUSH32 0x130D746740BA1F3DC1A09241A6B68A409437A6B7689A24051A23E64C1B99559 SWAP1 PUSH1 0x20 ADD PUSH2 0xCCF JUMP JUMPDEST PUSH1 0x0 PUSH2 0xEA4 PUSH2 0x2165 JUMP JUMPDEST TIMESTAMP DUP4 PUSH1 0x1 PUSH1 0x1 PUSH1 0x40 SHL SUB AND GT PUSH2 0xEFC JUMPI PUSH1 0x40 MLOAD PUSH3 0x461BCD PUSH1 0xE5 SHL DUP2 MSTORE PUSH1 0x20 PUSH1 0x4 DUP3 ADD MSTORE PUSH1 0x1A PUSH1 0x24 DUP3 ADD MSTORE PUSH32 0x456E642074696D65206D75737420626520696E20667574757265000000000000 PUSH1 0x44 DUP3 ADD MSTORE PUSH1 0x64 ADD PUSH2 0x7C4 JUMP JUMPDEST DUP8 PUSH2 0xF3A JUMPI PUSH1 0x40 MLOAD PUSH3 0x461BCD PUSH1 0xE5 SHL DUP2 MSTORE PUSH1 0x20 PUSH1 0x4 DUP3 ADD MSTORE PUSH1 0xE PUSH1 0x24 DUP3 ADD MSTORE PUSH14 0x151A5D1B19481C995C5D5A5C9959 PUSH1 0x92 SHL PUSH1 0x44 DUP3 ADD MSTORE PUSH1 0x64 ADD PUSH2 0x7C4 JUMP JUMPDEST PUSH1 0x0 DUP3 PUSH1 0x1 DUP2 GT ISZERO PUSH2 0xF4E JUMPI PUSH2 0xF4E PUSH2 0x2397 JUMP JUMPDEST SUB PUSH2 0xFA8 JUMPI PUSH1 0x2 DUP5 EQ PUSH2 0xFA3 JUMPI PUSH1 0x40 MLOAD PUSH3 0x461BCD PUSH1 0xE5 SHL DUP2 MSTORE PUSH1 0x20 PUSH1 0x4 DUP3 ADD MSTORE PUSH1 0x1A PUSH1 0x24 DUP3 ADD MSTORE PUSH32 0x42696E617279206D75737420686176652032206F7074696F6E73000000000000 PUSH1 0x44 DUP3 ADD MSTORE PUSH1 0x64 ADD PUSH2 0x7C4 JUMP JUMPDEST PUSH2 0x103B JUMP JUMPDEST PUSH1 0x2 DUP5 LT ISZERO PUSH2 0xFF9 JUMPI PUSH1 0x40 MLOAD PUSH3 0x461BCD PUSH1 0xE5 SHL DUP2 MSTORE PUSH1 0x20 PUSH1 0x4 DUP3 ADD MSTORE PUSH1 0x19 PUSH1 0x24 DUP3 ADD MSTORE PUSH32 0x4D756C7469706C65206E6565647320322B206F7074696F6E7300000000000000 PUSH1 0x44 DUP3 ADD MSTORE PUSH1 0x64 ADD PUSH2 0x7C4 JUMP JUMPDEST PUSH1 0x14 DUP5 GT ISZERO PUSH2 0x103B JUMPI PUSH1 0x40 MLOAD PUSH3 0x461BCD PUSH1 0xE5 SHL DUP2 MSTORE PUSH1 0x20 PUSH1 0x4 DUP3 ADD MSTORE PUSH1 0xE PUSH1 0x24 DUP3 ADD MSTORE PUSH14 0x4D6178203230206F7074696F6E73 PUSH1 0x90 SHL PUSH1 0x44 DUP3 ADD MSTORE PUSH1 0x64 ADD PUSH2 0x7C4 JUMP JUMPDEST PUSH1 0x0 SLOAD PUSH1 0x1 PUSH1 0x1 PUSH1 0xA0 SHL SUB AND CALLER EQ PUSH2 0x10F0 JUMPI PUSH1 0x4 SLOAD PUSH1 0x1 PUSH1 0x80 SHL SWAP1 DIV PUSH1 0x1 PUSH1 0x1 PUSH1 0x40 SHL SUB AND CALLVALUE EQ PUSH2 0x10A7 JUMPI PUSH1 0x40 MLOAD PUSH3 0x461BCD PUSH1 0xE5 SHL DUP2 MSTORE PUSH1 0x20 PUSH1 0x4 DUP3 ADD MSTORE PUSH1 0x16 PUSH1 0x24 DUP3 ADD MSTORE PUSH22 0x496E636F7272656374206372656174696F6E20666565 PUSH1 0x50 SHL PUSH1 0x44 DUP3 ADD MSTORE PUSH1 0x64 ADD PUSH2 0x7C4 JUMP JUMPDEST CALLVALUE PUSH1 0x4 PUSH1 0x18 DUP3 DUP3 DUP3 SWAP1 SLOAD SWAP1 PUSH2 0x100 EXP SWAP1 DIV PUSH1 0x1 PUSH1 0x1 PUSH1 0x40 SHL SUB AND PUSH2 0x10CB SWAP2 SWAP1 PUSH2 0x27D5 JUMP JUMPDEST SWAP3 POP PUSH2 0x100 EXP DUP2 SLOAD DUP2 PUSH1 0x1 PUSH1 0x1 PUSH1 0x40 SHL SUB MUL NOT AND SWAP1 DUP4 PUSH1 0x1 PUSH1 0x1 PUSH1 0x40 SHL SUB AND MUL OR SWAP1 SSTORE POP JUMPDEST PUSH1 0x4 DUP1 SLOAD PUSH1 0x0 SWAP2 PUSH1 0x1 PUSH1 0x1 PUSH1 0x40 SHL SUB SWAP1 SWAP2 AND SWAP1 DUP3 PUSH2 0x110D DUP4 PUSH2 0x2847 JUMP JUMPDEST SWAP2 SWAP1 PUSH2 0x100 EXP DUP2 SLOAD DUP2 PUSH1 0x1 PUSH1 0x1 PUSH1 0x40 SHL SUB MUL NOT AND SWAP1 DUP4 PUSH1 0x1 PUSH1 0x1 PUSH1 0x40 SHL SUB AND MUL OR SWAP1 SSTORE POP SWAP1 POP PUSH1 0x0 DUP7 DUP7 SWAP1 POP SWAP1 POP PUSH1 0x40 MLOAD DUP1 PUSH2 0x160 ADD PUSH1 0x40 MSTORE DUP1 DUP4 PUSH1 0x1 PUSH1 0x1 PUSH1 0x40 SHL SUB AND DUP2 MSTORE PUSH1 0x20 ADD CALLER PUSH1 0x1 PUSH1 0x1 PUSH1 0xA0 SHL SUB AND DUP2 MSTORE PUSH1 0x20 ADD DUP7 PUSH1 0x1 PUSH1 0x1 PUSH1 0x40 SHL SUB AND DUP2 MSTORE PUSH1 0x20 ADD PUSH1 0x0 PUSH1 0x1 PUSH1 0x1 PUSH1 0x40 SHL SUB AND DUP2 MSTORE PUSH1 0x20 ADD DUP3 PUSH1 0xFF AND PUSH1 0x1 PUSH1 0x1 PUSH1 0x40 SHL SUB DUP2 GT ISZERO PUSH2 0x119F JUMPI PUSH2 0x119F PUSH2 0x286D JUMP JUMPDEST PUSH1 0x40 MLOAD SWAP1 DUP1 DUP3 MSTORE DUP1 PUSH1 0x20 MUL PUSH1 0x20 ADD DUP3 ADD PUSH1 0x40 MSTORE DUP1 ISZERO PUSH2 0x11C8 JUMPI DUP2 PUSH1 0x20 ADD PUSH1 0x20 DUP3 MUL DUP1 CALLDATASIZE DUP4 CALLDATACOPY ADD SWAP1 POP JUMPDEST POP DUP2 MSTORE PUSH1 0x0 PUSH1 0x20 DUP3 ADD DUP2 SWAP1 MSTORE PUSH1 0x40 DUP3 ADD MSTORE PUSH1 0xFF DUP4 AND PUSH1 0x60 DUP3 ADD MSTORE PUSH1 0x80 ADD DUP6 PUSH1 0x1 DUP2 GT ISZERO PUSH2 0x11F7 JUMPI PUSH2 0x11F7 PUSH2 0x2397 JUMP JUMPDEST DUP2 MSTORE PUSH1 0x0 PUSH1 0x20 DUP1 DUP4 ADD DUP3 SWAP1 MSTORE PUSH1 0x40 SWAP3 DUP4 ADD DUP3 SWAP1 MSTORE PUSH1 0x1 PUSH1 0x1 PUSH1 0x40 SHL SUB DUP7 DUP2 AND DUP4 MSTORE PUSH1 0x5 DUP3 MSTORE SWAP2 DUP4 SWAP1 KECCAK256 DUP5 MLOAD DUP2 SLOAD DUP7 DUP5 ADD MLOAD SWAP2 DUP6 AND PUSH1 0x1 PUSH1 0x1 PUSH1 0xE0 SHL SUB NOT SWAP1 SWAP2 AND OR PUSH1 0x1 PUSH1 0x40 SHL PUSH1 0x1 PUSH1 0x1 PUSH1 0xA0 SHL SUB SWAP1 SWAP3 AND DUP3 MUL OR DUP3 SSTORE SWAP4 DUP6 ADD MLOAD PUSH1 0x1 DUP3 ADD DUP1 SLOAD PUSH1 0x60 DUP9 ADD MLOAD SWAP3 DUP7 AND PUSH16 0xFFFFFFFFFFFFFFFFFFFFFFFFFFFFFFFF NOT SWAP1 SWAP2 AND OR SWAP2 SWAP1 SWAP5 AND SWAP1 SWAP5 MUL SWAP4 SWAP1 SWAP4 OR SWAP1 SWAP2 SSTORE PUSH1 0x80 DUP4 ADD MLOAD DUP1 MLOAD PUSH2 0x129A SWAP3 PUSH1 0x2 DUP6 ADD SWAP3 ADD SWAP1 PUSH2 0x2239 JUMP JUMPDEST POP PUSH1 0xA0 DUP3 ADD MLOAD PUSH1 0x3 DUP3 ADD DUP1 SLOAD PUSH1 0xC0 DUP6 ADD MLOAD PUSH1 0xE0 DUP7 ADD MLOAD PUSH2 0xFFFF NOT SWAP1 SWAP3 AND SWAP4 ISZERO ISZERO PUSH2 0xFF00 NOT AND SWAP4 SWAP1 SWAP4 OR PUSH2 0x100 PUSH1 0xFF SWAP5 DUP6 AND DUP2 MUL SWAP2 SWAP1 SWAP2 OR PUSH3 0xFF0000 NOT DUP2 AND PUSH3 0x10000 SWAP6 SWAP1 SWAP4 AND SWAP5 SWAP1 SWAP5 MUL SWAP2 DUP3 OR DUP4 SSTORE DUP6 ADD MLOAD SWAP3 PUSH4 0xFFFF0000 NOT AND PUSH4 0xFF000000 NOT SWAP1 SWAP2 AND OR PUSH4 0x1000000 DUP4 PUSH1 0x1 DUP2 GT ISZERO PUSH2 0x1315 JUMPI PUSH2 0x1315 PUSH2 0x2397 JUMP JUMPDEST MUL OR SWAP1 SSTORE POP PUSH2 0x120 DUP3 ADD MLOAD DUP2 PUSH1 0x4 ADD SSTORE PUSH2 0x140 DUP3 ADD MLOAD DUP2 PUSH1 0x5 ADD PUSH1 0x0 PUSH2 0x100 EXP DUP2 SLOAD DUP2 PUSH1 0xFF MUL NOT AND SWAP1 DUP4 ISZERO ISZERO MUL OR SWAP1 SSTORE POP SWAP1 POP POP CALLER PUSH1 0x1 PUSH1 0x1 PUSH1 0xA0 SHL SUB AND DUP3 PUSH1 0x1 PUSH1 0x1 PUSH1 0x40 SHL SUB AND PUSH32 0x8C284E3567B6EDDBA2111E7034557394E5C8093010CEDFEB9FD6549B009A7D67 DUP14 DUP14 DUP14 DUP14 DUP14 DUP14 DUP10 DUP14 DUP16 TIMESTAMP PUSH1 0x40 MLOAD PUSH2 0x139E SWAP11 SWAP10 SWAP9 SWAP8 SWAP7 SWAP6 SWAP5 SWAP4 SWAP3 SWAP2 SWAP1 PUSH2 0x28AC JUMP JUMPDEST PUSH1 0x40 MLOAD DUP1 SWAP2 SUB SWAP1 LOG3 POP SWAP10 SWAP9 POP POP POP POP POP POP POP POP POP JUMP JUMPDEST PUSH2 0x13BC PUSH2 0x2165 JUMP JUMPDEST PUSH2 0x13C4 PUSH2 0x20BC JUMP JUMPDEST PUSH1 0x0 CALLVALUE GT PUSH2 0x140D JUMPI PUSH1 0x40 MLOAD PUSH3 0x461BCD PUSH1 0xE5 SHL DUP2 MSTORE PUSH1 0x20 PUSH1 0x4 DUP3 ADD MSTORE PUSH1 0x16 PUSH1 0x24 DUP3 ADD MSTORE PUSH22 0x42657420616D6F756E74206D757374206265203E203 PUSH1 0x54 SHL PUSH1 0x44 DUP3 ADD MSTORE PUSH1 0x64 ADD PUSH2 0x7C4 JUMP JUMPDEST PUSH1 0x1 PUSH1 0x1 PUSH1 0x40 SHL SUB DUP1 DUP4 AND PUSH1 0x0 SWAP1 DUP2 MSTORE PUSH1 0x5 PUSH1 0x20 MSTORE PUSH1 0x40 DUP2 KECCAK256 DUP1 SLOAD SWAP1 SWAP3 AND SWAP1 SUB PUSH2 0x1471 JUMPI PUSH1 0x40 MLOAD PUSH3 0x461BCD PUSH1 0xE5 SHL DUP2 MSTORE PUSH1 0x20 PUSH1 0x4 DUP3 ADD MSTORE PUSH1 0x15 PUSH1 0x24 DUP3 ADD MSTORE PUSH21 0x13585C9AD95D08191BD95CC81B9BDD08195E1A5CDD PUSH1 0x5A SHL PUSH1 0x44 DUP3 ADD MSTORE PUSH1 0x64 ADD PUSH2 0x7C4 JUMP JUMPDEST PUSH1 0x3 DUP2 ADD SLOAD PUSH1 0xFF AND ISZERO PUSH2 0x14C6 JUMPI PUSH1 0x40 MLOAD PUSH3 0x461BCD PUSH1 0xE5 SHL DUP2 MSTORE PUSH1 0x20 PUSH1 0x4 DUP3 ADD MSTORE PUSH1 0x17 PUSH1 0x24 DUP3 ADD MSTORE PUSH32 0x4D61726B657420616C7265616479207265736F6C766564000000000000000000 PUSH1 0x44 DUP3 ADD MSTORE PUSH1 0x64 ADD PUSH2 0x7C4 JUMP JUMPDEST PUSH1 0x1 DUP2 ADD SLOAD PUSH1 0x1 PUSH1 0x1 PUSH1 0x40 SHL SUB AND TIMESTAMP LT PUSH2 0x1518 JUMPI PUSH1 0x40 MLOAD PUSH3 0x461BCD PUSH1 0xE5 SHL DUP2 MSTORE PUSH1 0x20 PUSH1 0x4 DUP3 ADD MSTORE PUSH1 0x13 PUSH1 0x24 DUP3 ADD MSTORE PUSH19 0x10995D1D1A5B99C81C1A185CD948195B991959 PUSH1 0x6A SHL PUSH1 0x44 DUP3 ADD MSTORE PUSH1 0x64 ADD PUSH2 0x7C4 JUMP JUMPDEST PUSH1 0x3 DUP2 ADD SLOAD PUSH1 0xFF PUSH3 0x10000 SWAP1 SWAP2 DIV DUP2 AND SWAP1 DUP4 AND LT PUSH2 0x156F JUMPI PUSH1 0x40 MLOAD PUSH3 0x461BCD PUSH1 0xE5 SHL DUP2 MSTORE PUSH1 0x20 PUSH1 0x4 DUP3 ADD MSTORE PUSH1 0x14 PUSH1 0x24 DUP3 ADD MSTORE PUSH20 0x92DCECC2D8D2C840DEE0E8D2DEDC40D2DCC8CAF PUSH1 0x63 SHL PUSH1 0x44 DUP3 ADD MSTORE PUSH1 0x64 ADD PUSH2 0x7C4 JUMP JUMPDEST CALLVALUE DUP2 PUSH1 0x1 ADD PUSH1 0x8 DUP3 DUP3 DUP3 SWAP1 SLOAD SWAP1 PUSH2 0x100 EXP SWAP1 DIV PUSH1 0x1 PUSH1 0x1 PUSH1 0x40 SHL SUB AND PUSH2 0x1595 SWAP2 SWAP1 PUSH2 0x27D5 JUMP JUMPDEST SWAP3 POP PUSH2 0x100 EXP DUP2 SLOAD DUP2 PUSH1 0x1 PUSH1 0x1 PUSH1 0x40 SHL SUB MUL NOT AND SWAP1 DUP4 PUSH1 0x1 PUSH1 0x1 PUSH1 0x40 SHL SUB AND MUL OR SWAP1 SSTORE POP CALLVALUE DUP2 PUSH1 0x2 ADD DUP4 PUSH1 0xFF AND DUP2 SLOAD DUP2 LT PUSH2 0x15D2 JUMPI PUSH2 0x15D2 PUSH2 0x26EA JUMP JUMPDEST SWAP1 PUSH1 0x0 MSTORE PUSH1 0x20 PUSH1 0x0 KECCAK256 SWAP1 PUSH1 0x4 SWAP2 DUP3 DUP3 DIV ADD SWAP2 SWAP1 MOD PUSH1 0x8 MUL DUP3 DUP3 DUP3 SWAP1 SLOAD SWAP1 PUSH2 0x100 EXP SWAP1 DIV PUSH1 0x1 PUSH1 0x1 PUSH1 0x40 SHL SUB AND PUSH2 0x1608 SWAP2 SWAP1 PUSH2 0x27D5 JUMP JUMPDEST DUP3 SLOAD PUSH2 0x100 SWAP3 SWAP1 SWAP3 EXP PUSH1 0x1 PUSH1 0x1 PUSH1 0x40 SHL SUB DUP2 DUP2 MUL NOT SWAP1 SWAP4 AND SWAP2 DUP4 AND MUL OR SWAP1 SWAP2 SSTORE DUP5 AND PUSH1 0x0 SWAP1 DUP2 MSTORE PUSH1 0x6 PUSH1 0x20 SWAP1 DUP2 MSTORE PUSH1 0x40 DUP1 DUP4 KECCAK256 PUSH1 0xFF DUP8 AND DUP5 MSTORE DUP3 MSTORE DUP1 DUP4 KECCAK256 CALLER DUP5 MSTORE SWAP1 SWAP2 MSTORE DUP2 KECCAK256 DUP1 SLOAD CALLVALUE SWAP4 POP SWAP1 SWAP2 SWAP1 PUSH2 0x1661 SWAP1 DUP5 SWAP1 PUSH2 0x29B0 JUMP JUMPDEST SWAP1 SWAP2 SSTORE POP POP PUSH1 0x40 DUP1 MLOAD PUSH1 0xFF DUP5 AND DUP2 MSTORE CALLVALUE PUSH1 0x1 PUSH1 0x1 PUSH1 0x40 SHL SUB SWAP1 DUP2 AND PUSH1 0x20 DUP4 ADD MSTORE TIMESTAMP DUP2 AND DUP3 DUP5 ADD MSTORE SWAP2 MLOAD CALLER SWAP3 DUP7 AND SWAP2 PUSH32 0xFD0601261C03AE01FF97FB309765ACE55887B58DF2EB77C55E458083AA90CD6F SWAP2 SWAP1 DUP2 SWAP1 SUB PUSH1 0x60 ADD SWAP1 LOG3 POP PUSH2 0xC6C PUSH1 0x1 DUP1 SSTORE JUMP JUMPDEST PUSH2 0x16CC PUSH2 0x20E6 JUMP JUMPDEST PUSH2 0x7D0 DUP2 PUSH1 0x1 PUSH1 0x1 PUSH1 0x40 SHL SUB AND GT ISZERO PUSH2 0x171F JUMPI PUSH1 0x40 MLOAD PUSH3 0x461BCD PUSH1 0xE5 SHL DUP2 MSTORE PUSH1 0x20 PUSH1 0x4 DUP3 ADD MSTORE PUSH1 0x15 PUSH1 0x24 DUP3 ADD MSTORE PUSH21 0x4665652063616E6E6F742065786365656420323025 PUSH1 0x58 SHL PUSH1 0x44 DUP3 ADD MSTORE PUSH1 0x64 ADD PUSH2 0x7C4 JUMP JUMPDEST PUSH1 0x4 DUP1 SLOAD PUSH16 0xFFFFFFFFFFFFFFFF0000000000000000 NOT AND PUSH1 0x1 PUSH1 0x40 SHL PUSH1 0x1 PUSH1 0x1 PUSH1 0x40 SHL SUB DUP5 AND SWAP1 DUP2 MUL SWAP2 SWAP1 SWAP2 OR SWAP1 SWAP2 SSTORE PUSH1 0x40 MLOAD SWAP1 DUP2 MSTORE PUSH32 0xD9386D0CBE8C4DECDD8CD7DDDD8EAC91AAB992E408A3CC858BE221FD4CECFBBA SWAP1 PUSH1 0x20 ADD PUSH2 0xCCF JUMP JUMPDEST PUSH2 0x1787 PUSH2 0x20E6 JUMP JUMPDEST PUSH2 0xCEA PUSH1 0x0 PUSH2 0x2189 JUMP JUMPDEST PUSH2 0x1799 PUSH2 0x20E6 JUMP JUMPDEST PUSH1 0x2 DUP1 SLOAD PUSH2 0x100 PUSH1 0x1 PUSH1 0xA8 SHL SUB NOT AND PUSH2 0x100 PUSH1 0x1 PUSH1 0x1 PUSH1 0xA0 SHL SUB DUP5 AND SWAP1 DUP2 MUL SWAP2 SWAP1 SWAP2 OR SWAP1 SWAP2 SSTORE PUSH1 0x40 MLOAD SWAP1 DUP2 MSTORE PUSH32 0x3DF77BEB5DB05FCDD70A30FC8ADF3F83F9501B68579455ADBD100B8180940394 SWAP1 PUSH1 0x20 ADD PUSH2 0xCCF JUMP JUMPDEST PUSH2 0x17F7 PUSH2 0x20E6 JUMP JUMPDEST PUSH2 0xCEA PUSH2 0x21D9 JUMP JUMPDEST PUSH2 0x1807 PUSH2 0x20BC JUMP JUMPDEST PUSH1 0x1 PUSH1 0x1 PUSH1 0x40 SHL SUB DUP1 DUP3 AND PUSH1 0x0 SWAP1 DUP2 MSTORE PUSH1 0x5 PUSH1 0x20 MSTORE PUSH1 0x40 DUP2 KECCAK256 DUP1 SLOAD SWAP1 SWAP3 AND SWAP1 SUB PUSH2 0x1843 JUMPI PUSH1 0x40 MLOAD PUSH3 0x461BCD PUSH1 0xE5 SHL DUP2 MSTORE PUSH1 0x4 ADD PUSH2 0x7C4 SWAP1 PUSH2 0x27F5 JUMP JUMPDEST PUSH1 0x3 DUP2 ADD SLOAD PUSH1 0xFF AND ISZERO PUSH2 0x1868 JUMPI PUSH1 0x40 MLOAD PUSH3 0x461BCD PUSH1 0xE5 SHL DUP2 MSTORE PUSH1 0x4 ADD PUSH2 0x7C4 SWAP1 PUSH2 0x281D JUMP JUMPDEST PUSH1 0x4 DUP2 ADD SLOAD PUSH2 0x18B2 JUMPI PUSH1 0x40 MLOAD PUSH3 0x461BCD PUSH1 0xE5 SHL DUP2 MSTORE PUSH1 0x20 PUSH1 0x4 DUP3 ADD MSTORE PUSH1 0x16 PUSH1 0x24 DUP3 ADD MSTORE PUSH22 0x139BC81C995CDBDB1D5D1A5BDB881C1C9BDC1BDCD959 PUSH1 0x52 SHL PUSH1 0x44 DUP3 ADD MSTORE PUSH1 0x64 ADD PUSH2 0x7C4 JUMP JUMPDEST PUSH1 0x2 SLOAD PUSH2 0x100 SWAP1 DIV PUSH1 0x1 PUSH1 0x1 PUSH1 0xA0 SHL SUB AND PUSH2 0x1907 JUMPI PUSH1 0x40 MLOAD PUSH3 0x461BCD PUSH1 0xE5 SHL DUP2 MSTORE PUSH1 0x20 PUSH1 0x4 DUP3 ADD MSTORE PUSH1 0x15 PUSH1 0x24 DUP3 ADD MSTORE PUSH21 0x13DC9858DB19481B9BDD0818DBDB999A59DD5C9959 PUSH1 0x5A SHL PUSH1 0x44 DUP3 ADD MSTORE PUSH1 0x64 ADD PUSH2 0x7C4 JUMP JUMPDEST PUSH1 0x2 SLOAD PUSH1 0x4 DUP3 DUP2 ADD SLOAD PUSH1 0x40 MLOAD PUSH4 0x4124BEEF PUSH1 0xE0 SHL DUP2 MSTORE SWAP2 DUP3 ADD MSTORE PUSH2 0x100 SWAP1 SWAP2 DIV PUSH1 0x1 PUSH1 0x1 PUSH1 0xA0 SHL SUB AND SWAP1 PUSH4 0x4124BEEF SWAP1 PUSH1 0x24 ADD PUSH1 0x0 PUSH1 0x40 MLOAD DUP1 DUP4 SUB DUP2 PUSH1 0x0 DUP8 DUP1 EXTCODESIZE ISZERO DUP1 ISZERO PUSH2 0x1954 JUMPI PUSH1 0x0 DUP1 REVERT JUMPDEST POP GAS CALL ISZERO DUP1 ISZERO PUSH2 0x1968 JUMPI RETURNDATASIZE PUSH1 0x0 DUP1 RETURNDATACOPY RETURNDATASIZE PUSH1 0x0 REVERT JUMPDEST POP POP PUSH1 0x2 SLOAD PUSH1 0x4 DUP5 DUP2 ADD SLOAD PUSH1 0x40 MLOAD PUSH4 0x220C0A21 PUSH1 0xE2 SHL DUP2 MSTORE SWAP2 DUP3 ADD MSTORE PUSH1 0x0 SWAP4 POP DUP4 SWAP3 POP PUSH2 0x100 SWAP1 SWAP2 DIV PUSH1 0x1 PUSH1 0x1 PUSH1 0xA0 SHL SUB AND SWAP1 PUSH4 0x88302884 SWAP1 PUSH1 0x24 ADD PUSH1 0x0 PUSH1 0x40 MLOAD DUP1 DUP4 SUB DUP2 DUP7 GAS STATICCALL ISZERO DUP1 ISZERO PUSH2 0x19C1 JUMPI RETURNDATASIZE PUSH1 0x0 DUP1 RETURNDATACOPY RETURNDATASIZE PUSH1 0x0 REVERT JUMPDEST POP POP POP POP PUSH1 0x40 MLOAD RETURNDATASIZE PUSH1 0x0 DUP3 RETURNDATACOPY PUSH1 0x1F RETURNDATASIZE SWAP1 DUP2 ADD PUSH1 0x1F NOT AND DUP3 ADD PUSH1 0x40 MSTORE PUSH2 0x19E9 SWAP2 SWAP1 DUP2 ADD SWAP1 PUSH2 0x2A90 JUMP JUMPDEST SWAP10 POP POP POP POP POP POP POP POP POP SWAP2 POP DUP2 PUSH2 0x1A3A JUMPI PUSH1 0x40 MLOAD PUSH3 0x461BCD PUSH1 0xE5 SHL DUP2 MSTORE PUSH1 0x20 PUSH1 0x4 DUP3 ADD MSTORE PUSH1 0x15 PUSH1 0x24 DUP3 ADD MSTORE PUSH21 0x105CDCD95C9D1A5BDB881B9BDD081CD95D1D1B1959 PUSH1 0x5A SHL PUSH1 0x44 DUP3 ADD MSTORE PUSH1 0x64 ADD PUSH2 0x7C4 JUMP JUMPDEST PUSH1 0x0 DUP1 DUP3 DUP1 PUSH1 0x20 ADD SWAP1 MLOAD DUP2 ADD SWAP1 PUSH2 0x1A51 SWAP2 SWAP1 PUSH2 0x2B56 JUMP JUMPDEST POP SWAP2 POP SWAP2 POP DUP6 PUSH1 0x1 PUSH1 0x1 PUSH1 0x40 SHL SUB AND DUP3 PUSH1 0x1 PUSH1 0x1 PUSH1 0x40 SHL SUB AND EQ PUSH2 0x1AAC JUMPI PUSH1 0x40 MLOAD PUSH3 0x461BCD PUSH1 0xE5 SHL DUP2 MSTORE PUSH1 0x20 PUSH1 0x4 DUP3 ADD MSTORE PUSH1 0x12 PUSH1 0x24 DUP3 ADD MSTORE PUSH18 0x9AC2E4D6CAE840928840DAD2E6DAC2E8C6D PUSH1 0x73 SHL PUSH1 0x44 DUP3 ADD MSTORE PUSH1 0x64 ADD PUSH2 0x7C4 JUMP JUMPDEST PUSH1 0x3 DUP6 ADD DUP1 SLOAD PUSH1 0x5 DUP8 ADD DUP1 SLOAD PUSH1 0x1 PUSH1 0xFF NOT SWAP1 SWAP2 AND DUP2 OR SWAP1 SWAP2 SSTORE PUSH2 0xFFFF NOT SWAP1 SWAP2 AND PUSH2 0x100 PUSH1 0xFF DUP6 AND SWAP1 DUP2 MUL SWAP2 SWAP1 SWAP2 OR DUP3 OR SWAP1 SWAP3 SSTORE PUSH1 0x4 DUP8 ADD SLOAD PUSH1 0x40 DUP1 MLOAD SWAP4 DUP5 MSTORE PUSH1 0x20 DUP5 ADD SWAP2 SWAP1 SWAP2 MSTORE DUP3 ADD MSTORE TIMESTAMP PUSH1 0x1 PUSH1 0x1 PUSH1 0x40 SHL SUB SWAP1 DUP2 AND PUSH1 0x60 DUP4 ADD MSTORE DUP8 AND SWAP1 PUSH32 0xFD2FA1B727EA98BB20D901E164BFF12E56B3E841AB8D13627CC7679983F25FF5 SWAP1 PUSH1 0x80 ADD PUSH1 0x40 MLOAD DUP1 SWAP2 SUB SWAP1 LOG2 POP POP POP POP POP PUSH2 0xAF2 PUSH1 0x1 DUP1 SSTORE JUMP JUMPDEST PUSH2 0x1B4D PUSH2 0x20BC JUMP JUMPDEST PUSH1 0x1 PUSH1 0x1 PUSH1 0x40 SHL SUB DUP1 DUP6 AND PUSH1 0x0 SWAP1 DUP2 MSTORE PUSH1 0x5 PUSH1 0x20 MSTORE PUSH1 0x40 DUP2 KECCAK256 DUP1 SLOAD SWAP1 SWAP3 AND SWAP1 SUB PUSH2 0x1B89 JUMPI PUSH1 0x40 MLOAD PUSH3 0x461BCD PUSH1 0xE5 SHL DUP2 MSTORE PUSH1 0x4 ADD PUSH2 0x7C4 SWAP1 PUSH2 0x27F5 JUMP JUMPDEST PUSH1 0x3 DUP2 ADD SLOAD PUSH1 0xFF AND ISZERO PUSH2 0x1BAE JUMPI PUSH1 0x40 MLOAD PUSH3 0x461BCD PUSH1 0xE5 SHL DUP2 MSTORE PUSH1 0x4 ADD PUSH2 0x7C4 SWAP1 PUSH2 0x281D JUMP JUMPDEST PUSH1 0x1 DUP2 ADD SLOAD PUSH1 0x1 PUSH1 0x1 PUSH1 0x40 SHL SUB AND TIMESTAMP LT ISZERO PUSH2 0x1C01 JUMPI PUSH1 0x40 MLOAD PUSH3 0x461BCD PUSH1 0xE5 SHL DUP2 MSTORE PUSH1 0x20 PUSH1 0x4 DUP3 ADD MSTORE PUSH1 0x13 PUSH1 0x24 DUP3 ADD MSTORE PUSH19 0x4D61726B6574207374696C6C20616374697665 PUSH1 0x68 SHL PUSH1 0x44 DUP3 ADD MSTORE PUSH1 0x64 ADD PUSH2 0x7C4 JUMP JUMPDEST PUSH1 0x3 DUP2 ADD SLOAD PUSH1 0xFF PUSH3 0x10000 SWAP1 SWAP2 DIV DUP2 AND SWAP1 DUP6 AND LT PUSH2 0x1C52 JUMPI PUSH1 0x40 MLOAD PUSH3 0x461BCD PUSH1 0xE5 SHL DUP2 MSTORE PUSH1 0x20 PUSH1 0x4 DUP3 ADD MSTORE PUSH1 0xE PUSH1 0x24 DUP3 ADD MSTORE PUSH14 0x24B73B30B634B21037B83A34B7B7 PUSH1 0x91 SHL PUSH1 0x44 DUP3 ADD MSTORE PUSH1 0x64 ADD PUSH2 0x7C4 JUMP JUMPDEST PUSH1 0x4 DUP2 ADD SLOAD ISZERO PUSH2 0x1CA4 JUMPI PUSH1 0x40 MLOAD PUSH3 0x461BCD PUSH1 0xE5 SHL DUP2 MSTORE PUSH1 0x20 PUSH1 0x4 DUP3 ADD MSTORE PUSH1 0x1B PUSH1 0x24 DUP3 ADD MSTORE PUSH32 0x5265736F6C7574696F6E20616C72656164792070726F706F7365640000000000 PUSH1 0x44 DUP3 ADD MSTORE PUSH1 0x64 ADD PUSH2 0x7C4 JUMP JUMPDEST DUP1 SLOAD PUSH1 0x1 PUSH1 0x40 SHL SWAP1 DIV PUSH1 0x1 PUSH1 0x1 PUSH1 0xA0 SHL SUB AND CALLER EQ DUP1 PUSH2 0x1CCD JUMPI POP PUSH1 0x0 SLOAD PUSH1 0x1 PUSH1 0x1 PUSH1 0xA0 SHL SUB AND CALLER EQ JUMPDEST PUSH2 0x1D11 JUMPI PUSH1 0x40 MLOAD PUSH3 0x461BCD PUSH1 0xE5 SHL DUP2 MSTORE PUSH1 0x20 PUSH1 0x4 DUP3 ADD MSTORE PUSH1 0x15 PUSH1 0x24 DUP3 ADD MSTORE PUSH21 0x27B7363C9031B932B0BA37B91037B91037BBB732B9 PUSH1 0x59 SHL PUSH1 0x44 DUP3 ADD MSTORE PUSH1 0x64 ADD PUSH2 0x7C4 JUMP JUMPDEST PUSH1 0x3 SLOAD CALLVALUE LT ISZERO PUSH2 0x1D57 JUMPI PUSH1 0x40 MLOAD PUSH3 0x461BCD PUSH1 0xE5 SHL DUP2 MSTORE PUSH1 0x20 PUSH1 0x4 DUP3 ADD MSTORE PUSH1 0x11 PUSH1 0x24 DUP3 ADD MSTORE PUSH17 0x125B9CDD59999A58DA595B9D08189BDB99 PUSH1 0x7A SHL PUSH1 0x44 DUP3 ADD MSTORE PUSH1 0x64 ADD PUSH2 0x7C4 JUMP JUMPDEST PUSH1 0x2 SLOAD PUSH2 0x100 SWAP1 DIV PUSH1 0x1 PUSH1 0x1 PUSH1 0xA0 SHL SUB AND PUSH2 0x1E81 JUMPI PUSH1 0x3 DUP2 ADD DUP1 SLOAD PUSH1 0xFF DUP7 AND PUSH2 0x100 MUL PUSH2 0xFFFF NOT SWAP1 SWAP2 AND OR PUSH1 0x1 OR SWAP1 SSTORE PUSH1 0x5 DUP2 ADD DUP1 SLOAD PUSH1 0xFF NOT AND SWAP1 SSTORE CALLVALUE ISZERO PUSH2 0x1E23 JUMPI PUSH1 0x40 MLOAD PUSH1 0x0 SWAP1 CALLER SWAP1 CALLVALUE SWAP1 DUP4 DUP2 DUP2 DUP2 DUP6 DUP8 GAS CALL SWAP3 POP POP POP RETURNDATASIZE DUP1 PUSH1 0x0 DUP2 EQ PUSH2 0x1DDB JUMPI PUSH1 0x40 MLOAD SWAP2 POP PUSH1 0x1F NOT PUSH1 0x3F RETURNDATASIZE ADD AND DUP3 ADD PUSH1 0x40 MSTORE RETURNDATASIZE DUP3 MSTORE RETURNDATASIZE PUSH1 0x0 PUSH1 0x20 DUP5 ADD RETURNDATACOPY PUSH2 0x1DE0 JUMP JUMPDEST PUSH1 0x60 SWAP2 POP JUMPDEST POP POP SWAP1 POP DUP1 PUSH2 0x1E21 JUMPI PUSH1 0x40 MLOAD PUSH3 0x461BCD PUSH1 0xE5 SHL DUP2 MSTORE PUSH1 0x20 PUSH1 0x4 DUP3 ADD MSTORE PUSH1 0xD PUSH1 0x24 DUP3 ADD MSTORE PUSH13 0x1499599D5B990819985A5B1959 PUSH1 0x9A SHL PUSH1 0x44 DUP3 ADD MSTORE PUSH1 0x64 ADD PUSH2 0x7C4 JUMP JUMPDEST POP JUMPDEST PUSH1 0x40 DUP1 MLOAD PUSH1 0xFF DUP7 AND DUP2 MSTORE PUSH1 0x0 PUSH1 0x20 DUP3 ADD DUP2 SWAP1 MSTORE DUP2 DUP4 ADD MSTORE TIMESTAMP PUSH1 0x1 PUSH1 0x1 PUSH1 0x40 SHL SUB SWAP1 DUP2 AND PUSH1 0x60 DUP4 ADD MSTORE SWAP2 MLOAD SWAP2 DUP8 AND SWAP2 PUSH32 0xFD2FA1B727EA98BB20D901E164BFF12E56B3E841AB8D13627CC7679983F25FF5 SWAP2 DUP2 SWAP1 SUB PUSH1 0x80 ADD SWAP1 LOG2 POP PUSH2 0x2072 JUMP JUMPDEST PUSH1 0x0 DUP6 DUP6 DUP6 DUP6 PUSH1 0x40 MLOAD PUSH1 0x20 ADD PUSH2 0x1E9A SWAP5 SWAP4 SWAP3 SWAP2 SWAP1 PUSH2 0x2BCD JUMP JUMPDEST PUSH1 0x40 DUP1 MLOAD DUP1 DUP4 SUB PUSH1 0x1F NOT ADD DUP2 MSTORE SWAP1 DUP3 SWAP1 MSTORE PUSH1 0x2 SLOAD PUSH1 0x3 SLOAD PUSH4 0x6457C979 PUSH1 0xE0 SHL DUP5 MSTORE SWAP2 SWAP4 POP PUSH1 0x0 SWAP3 PUSH2 0x100 SWAP1 SWAP2 DIV PUSH1 0x1 PUSH1 0x1 PUSH1 0xA0 SHL SUB AND SWAP2 PUSH4 0x6457C979 SWAP2 PUSH2 0x1F06 SWAP1 DUP7 SWAP1 CALLER SWAP1 ADDRESS SWAP1 DUP9 SWAP1 PUSH2 0x1C20 SWAP1 DUP3 SWAP1 DUP9 SWAP1 PUSH12 0x82A6A68AA4A8BEA8A4AAA89 PUSH1 0xA3 SHL SWAP1 DUP4 SWAP1 PUSH1 0x4 ADD PUSH2 0x2C03 JUMP JUMPDEST PUSH1 0x20 PUSH1 0x40 MLOAD DUP1 DUP4 SUB DUP2 DUP6 DUP9 GAS CALL ISZERO DUP1 ISZERO PUSH2 0x1F24 JUMPI RETURNDATASIZE PUSH1 0x0 DUP1 RETURNDATACOPY RETURNDATASIZE PUSH1 0x0 REVERT JUMPDEST POP POP POP POP POP PUSH1 0x40 MLOAD RETURNDATASIZE PUSH1 0x1F NOT PUSH1 0x1F DUP3 ADD AND DUP3 ADD DUP1 PUSH1 0x40 MSTORE POP DUP2 ADD SWAP1 PUSH2 0x1F49 SWAP2 SWAP1 PUSH2 0x2C8A JUMP JUMPDEST PUSH1 0x4 DUP5 ADD DUP2 SWAP1 SSTORE PUSH1 0x0 DUP2 DUP2 MSTORE PUSH1 0x7 PUSH1 0x20 MSTORE PUSH1 0x40 SWAP1 KECCAK256 DUP1 SLOAD PUSH8 0xFFFFFFFFFFFFFFFF NOT AND PUSH1 0x1 PUSH1 0x1 PUSH1 0x40 SHL SUB DUP11 AND OR SWAP1 SSTORE PUSH1 0x3 SLOAD SWAP1 SWAP2 POP CALLVALUE GT ISZERO PUSH2 0x201B JUMPI PUSH1 0x3 SLOAD PUSH1 0x0 SWAP1 CALLER SWAP1 PUSH2 0x1F97 SWAP1 CALLVALUE PUSH2 0x2CA3 JUMP JUMPDEST PUSH1 0x40 MLOAD PUSH1 0x0 DUP2 DUP2 DUP2 DUP6 DUP8 GAS CALL SWAP3 POP POP POP RETURNDATASIZE DUP1 PUSH1 0x0 DUP2 EQ PUSH2 0x1FD3 JUMPI PUSH1 0x40 MLOAD SWAP2 POP PUSH1 0x1F NOT PUSH1 0x3F RETURNDATASIZE ADD AND DUP3 ADD PUSH1 0x40 MSTORE RETURNDATASIZE DUP3 MSTORE RETURNDATASIZE PUSH1 0x0 PUSH1 0x20 DUP5 ADD RETURNDATACOPY PUSH2 0x1FD8 JUMP JUMPDEST PUSH1 0x60 SWAP2 POP JUMPDEST POP POP SWAP1 POP DUP1 PUSH2 0x2019 JUMPI PUSH1 0x40 MLOAD PUSH3 0x461BCD PUSH1 0xE5 SHL DUP2 MSTORE PUSH1 0x20 PUSH1 0x4 DUP3 ADD MSTORE PUSH1 0xD PUSH1 0x24 DUP3 ADD MSTORE PUSH13 0x1499599D5B990819985A5B1959 PUSH1 0x9A SHL PUSH1 0x44 DUP3 ADD MSTORE PUSH1 0x64 ADD PUSH2 0x7C4 JUMP JUMPDEST POP JUMPDEST CALLER PUSH1 0x1 PUSH1 0x1 PUSH1 0xA0 SHL SUB AND DUP8 PUSH1 0x1 PUSH1 0x1 PUSH1 0x40 SHL SUB AND PUSH32 0xAD6459C0676DD896EED5E8B6A120A3B25E3E64F5D71C79CC0309794913E74DE8 DUP9 DUP5 DUP10 DUP10 TIMESTAMP PUSH1 0x40 MLOAD PUSH2 0x2066 SWAP6 SWAP5 SWAP4 SWAP3 SWAP2 SWAP1 PUSH2 0x2CB6 JUMP JUMPDEST PUSH1 0x40 MLOAD DUP1 SWAP2 SUB SWAP1 LOG3 POP POP POP JUMPDEST PUSH2 0x207B PUSH1 0x1 DUP1 SSTORE JUMP JUMPDEST POP POP POP POP JUMP JUMPDEST PUSH2 0x2089 PUSH2 0x20E6 JUMP JUMPDEST PUSH1 0x1 PUSH1 0x1 PUSH1 0xA0 SHL SUB DUP2 AND PUSH2 0x20B3 JUMPI PUSH1 0x40 MLOAD PUSH4 0x1E4FBDF7 PUSH1 0xE0 SHL DUP2 MSTORE PUSH1 0x0 PUSH1 0x4 DUP3 ADD MSTORE PUSH1 0x24 ADD PUSH2 0x7C4 JUMP JUMPDEST PUSH2 0xAF2 DUP2 PUSH2 0x2189 JUMP JUMPDEST PUSH1 0x2 PUSH1 0x1 SLOAD SUB PUSH2 0x20DF JUMPI PUSH1 0x40 MLOAD PUSH4 0x3EE5AEB5 PUSH1 0xE0 SHL DUP2 MSTORE PUSH1 0x4 ADD PUSH1 0x40 MLOAD DUP1 SWAP2 SUB SWAP1 REVERT JUMPDEST PUSH1 0x2 PUSH1 0x1 SSTORE JUMP JUMPDEST PUSH1 0x0 SLOAD PUSH1 0x1 PUSH1 0x1 PUSH1 0xA0 SHL SUB AND CALLER EQ PUSH2 0xCEA JUMPI PUSH1 0x40 MLOAD PUSH4 0x118CDAA7 PUSH1 0xE0 SHL DUP2 MSTORE CALLER PUSH1 0x4 DUP3 ADD MSTORE PUSH1 0x24 ADD PUSH2 0x7C4 JUMP JUMPDEST PUSH2 0x211B PUSH2 0x2216 JUMP JUMPDEST PUSH1 0x2 DUP1 SLOAD PUSH1 0xFF NOT AND SWAP1 SSTORE PUSH32 0x5DB9EE0A495BF2E6FF9C91A7834C1BA4FDD244A5E8AA4E537BD38AEAE4B073AA CALLER JUMPDEST PUSH1 0x40 MLOAD PUSH1 0x1 PUSH1 0x1 PUSH1 0xA0 SHL SUB SWAP1 SWAP2 AND DUP2 MSTORE PUSH1 0x20 ADD PUSH1 0x40 MLOAD DUP1 SWAP2 SUB SWAP1 LOG1 JUMP JUMPDEST PUSH1 0x2 SLOAD PUSH1 0xFF AND ISZERO PUSH2 0xCEA JUMPI PUSH1 0x40 MLOAD PUSH4 0xD93C0665 PUSH1 0xE0 SHL DUP2 MSTORE PUSH1 0x4 ADD PUSH1 0x40 MLOAD DUP1 SWAP2 SUB SWAP1 REVERT JUMPDEST PUSH1 0x0 DUP1 SLOAD PUSH1 0x1 PUSH1 0x1 PUSH1 0xA0 SHL SUB DUP4 DUP2 AND PUSH1 0x1 PUSH1 0x1 PUSH1 0xA0 SHL SUB NOT DUP4 AND DUP2 OR DUP5 SSTORE PUSH1 0x40 MLOAD SWAP2 SWAP1 SWAP3 AND SWAP3 DUP4 SWAP2 PUSH32 0x8BE0079C531659141344CD1FD0A4F28419497F9722A3DAAFE3B4186F6B6457E0 SWAP2 SWAP1 LOG3 POP POP JUMP JUMPDEST PUSH2 0x21E1 PUSH2 0x2165 JUMP JUMPDEST PUSH1 0x2 DUP1 SLOAD PUSH1 0xFF NOT AND PUSH1 0x1 OR SWAP1 SSTORE PUSH32 0x62E78CEA01BEE320CD4E420270B5EA74000D11B0C9F74754EBDBFC544B05A258 PUSH2 0x2148 CALLER SWAP1 JUMP JUMPDEST PUSH1 0x2 SLOAD PUSH1 0xFF AND PUSH2 0xCEA JUMPI PUSH1 0x40 MLOAD PUSH4 0x8DFC202B PUSH1 0xE0 SHL DUP2 MSTORE PUSH1 0x4 ADD PUSH1 0x40 MLOAD DUP1 SWAP2 SUB SWAP1 REVERT JUMPDEST DUP3 DUP1 SLOAD DUP3 DUP3 SSTORE SWAP1 PUSH1 0x0 MSTORE PUSH1 0x20 PUSH1 0x0 KECCAK256 SWAP1 PUSH1 0x3 ADD PUSH1 0x4 SWAP1 DIV DUP2 ADD SWAP3 DUP3 ISZERO PUSH2 0x22E1 JUMPI SWAP2 PUSH1 0x20 MUL DUP3 ADD PUSH1 0x0 JUMPDEST DUP4 DUP3 GT ISZERO PUSH2 0x22AC JUMPI DUP4 MLOAD DUP4 DUP3 PUSH2 0x100 EXP DUP2 SLOAD DUP2 PUSH1 0x1 PUSH1 0x1 PUSH1 0x40 SHL SUB MUL NOT AND SWAP1 DUP4 PUSH1 0x1 PUSH1 0x1 PUSH1 0x40 SHL SUB AND MUL OR SWAP1 SSTORE POP SWAP3 PUSH1 0x20 ADD SWAP3 PUSH1 0x8 ADD PUSH1 0x20 DUP2 PUSH1 0x7 ADD DIV SWAP3 DUP4 ADD SWAP3 PUSH1 0x1 SUB MUL PUSH2 0x2262 JUMP JUMPDEST DUP1 ISZERO PUSH2 0x22DF JUMPI DUP3 DUP2 PUSH2 0x100 EXP DUP2 SLOAD SWAP1 PUSH1 0x1 PUSH1 0x1 PUSH1 0x40 SHL SUB MUL NOT AND SWAP1 SSTORE PUSH1 0x8 ADD PUSH1 0x20 DUP2 PUSH1 0x7 ADD DIV SWAP3 DUP4 ADD SWAP3 PUSH1 0x1 SUB MUL PUSH2 0x22AC JUMP JUMPDEST POP JUMPDEST POP PUSH2 0x22ED SWAP3 SWAP2 POP PUSH2 0x22F1 JUMP JUMPDEST POP SWAP1 JUMP JUMPDEST JUMPDEST DUP1 DUP3 GT ISZERO PUSH2 0x22ED JUMPI PUSH1 0x0 DUP2 SSTORE PUSH1 0x1 ADD PUSH2 0x22F2 JUMP JUMPDEST PUSH1 0x1 PUSH1 0x1 PUSH1 0x40 SHL SUB DUP2 AND DUP2 EQ PUSH2 0xAF2 JUMPI PUSH1 0x0 DUP1 REVERT JUMPDEST DUP1 CALLDATALOAD PUSH2 0x2326 DUP2 PUSH2 0x2306 JUMP JUMPDEST SWAP2 SWAP1 POP JUMP JUMPDEST PUSH1 0x0 PUSH1 0x20 DUP3 DUP5 SUB SLT ISZERO PUSH2 0x233D JUMPI PUSH1 0x0 DUP1 REVERT JUMPDEST DUP2 CALLDATALOAD PUSH2 0x2348 DUP2 PUSH2 0x2306 JUMP JUMPDEST SWAP4 SWAP3 POP POP POP JUMP JUMPDEST PUSH1 0xFF DUP2 AND DUP2 EQ PUSH2 0xAF2 JUMPI PUSH1 0x0 DUP1 REVERT JUMPDEST PUSH1 0x0 DUP1 PUSH1 0x40 DUP4 DUP6 SUB SLT ISZERO PUSH2 0x2371 JUMPI PUSH1 0x0 DUP1 REVERT JUMPDEST DUP3 CALLDATALOAD PUSH2 0x237C DUP2 PUSH2 0x2306 JUMP JUMPDEST SWAP2 POP PUSH1 0x20 DUP4 ADD CALLDATALOAD PUSH2 0x238C DUP2 PUSH2 0x234F JUMP JUMPDEST DUP1 SWAP2 POP POP SWAP3 POP SWAP3 SWAP1 POP JUMP JUMPDEST PUSH4 0x4E487B71 PUSH1 0xE0 SHL PUSH1 0x0 MSTORE PUSH1 0x21 PUSH1 0x4 MSTORE PUSH1 0x24 PUSH1 0x0 REVERT JUMPDEST PUSH1 0x2 DUP2 LT PUSH2 0x23CB JUMPI PUSH4 0x4E487B71 PUSH1 0xE0 SHL PUSH1 0x0 MSTORE PUSH1 0x21 PUSH1 0x4 MSTORE PUSH1 0x24 PUSH1 0x0 REVERT JUMPDEST SWAP1 MSTORE JUMP JUMPDEST PUSH1 0x1 PUSH1 0x1 PUSH1 0xA0 SHL SUB DUP11 AND DUP2 MSTORE PUSH1 0x1 PUSH1 0x1 PUSH1 0x40 SHL SUB DUP10 DUP2 AND PUSH1 0x20 DUP4 ADD MSTORE DUP9 AND PUSH1 0x40 DUP3 ADD MSTORE DUP7 ISZERO ISZERO PUSH1 0x60 DUP3 ADD MSTORE PUSH1 0xFF DUP7 DUP2 AND PUSH1 0x80 DUP4 ADD MSTORE DUP6 AND PUSH1 0xA0 DUP3 ADD MSTORE PUSH2 0x120 DUP2 ADD PUSH2 0x241D PUSH1 0xC0 DUP4 ADD DUP7 PUSH2 0x23AD JUMP JUMPDEST DUP4 PUSH1 0xE0 DUP4 ADD MSTORE DUP3 ISZERO ISZERO PUSH2 0x100 DUP4 ADD MSTORE SWAP11 SWAP10 POP POP POP POP POP POP POP POP POP POP JUMP JUMPDEST PUSH1 0x0 PUSH1 0x20 DUP3 DUP5 SUB SLT ISZERO PUSH2 0x244C JUMPI PUSH1 0x0 DUP1 REVERT JUMPDEST POP CALLDATALOAD SWAP2 SWAP1 POP JUMP JUMPDEST PUSH1 0x0 DUP1 DUP4 PUSH1 0x1F DUP5 ADD SLT PUSH2 0x2465 JUMPI PUSH1 0x0 DUP1 REVERT JUMPDEST POP DUP2 CALLDATALOAD PUSH1 0x1 PUSH1 0x1 PUSH1 0x40 SHL SUB DUP2 GT ISZERO PUSH2 0x247C JUMPI PUSH1 0x0 DUP1 REVERT JUMPDEST PUSH1 0x20 DUP4 ADD SWAP2 POP DUP4 PUSH1 0x20 DUP3 DUP6 ADD ADD GT ISZERO PUSH2 0x2494 JUMPI PUSH1 0x0 DUP1 REVERT JUMPDEST SWAP3 POP SWAP3 SWAP1 POP JUMP JUMPDEST DUP1 CALLDATALOAD PUSH1 0x2 DUP2 LT PUSH2 0x2326 JUMPI PUSH1 0x0 DUP1 REVERT JUMPDEST PUSH1 0x0 DUP1 PUSH1 0x0 DUP1 PUSH1 0x0 DUP1 PUSH1 0x0 DUP1 PUSH1 0xA0 DUP10 DUP12 SUB SLT ISZERO PUSH2 0x24C6 JUMPI PUSH1 0x0 DUP1 REVERT JUMPDEST DUP9 CALLDATALOAD PUSH1 0x1 PUSH1 0x1 PUSH1 0x40 SHL SUB DUP1 DUP3 GT ISZERO PUSH2 0x24DD JUMPI PUSH1 0x0 DUP1 REVERT JUMPDEST PUSH2 0x24E9 DUP13 DUP4 DUP14 ADD PUSH2 0x2453 JUMP JUMPDEST SWAP1 SWAP11 POP SWAP9 POP PUSH1 0x20 DUP12 ADD CALLDATALOAD SWAP2 POP DUP1 DUP3 GT ISZERO PUSH2 0x2502 JUMPI PUSH1 0x0 DUP1 REVERT JUMPDEST PUSH2 0x250E DUP13 DUP4 DUP14 ADD PUSH2 0x2453 JUMP JUMPDEST SWAP1 SWAP9 POP SWAP7 POP PUSH1 0x40 DUP12 ADD CALLDATALOAD SWAP2 POP DUP1 DUP3 GT ISZERO PUSH2 0x2527 JUMPI PUSH1 0x0 DUP1 REVERT JUMPDEST DUP2 DUP12 ADD SWAP2 POP DUP12 PUSH1 0x1F DUP4 ADD SLT PUSH2 0x253B JUMPI PUSH1 0x0 DUP1 REVERT JUMPDEST DUP2 CALLDATALOAD DUP2 DUP2 GT ISZERO PUSH2 0x254A JUMPI PUSH1 0x0 DUP1 REVERT JUMPDEST DUP13 PUSH1 0x20 DUP3 PUSH1 0x5 SHL DUP6 ADD ADD GT ISZERO PUSH2 0x255F JUMPI PUSH1 0x0 DUP1 REVERT JUMPDEST PUSH1 0x20 DUP4 ADD SWAP7 POP DUP1 SWAP6 POP POP POP POP PUSH2 0x2577 PUSH1 0x60 DUP11 ADD PUSH2 0x231B JUMP JUMPDEST SWAP2 POP PUSH2 0x2585 PUSH1 0x80 DUP11 ADD PUSH2 0x249B JUMP JUMPDEST SWAP1 POP SWAP3 SWAP6 SWAP9 POP SWAP3 SWAP6 SWAP9 SWAP1 SWAP4 SWAP7 POP JUMP JUMPDEST PUSH1 0x1 PUSH1 0x1 PUSH1 0xA0 SHL SUB DUP2 AND DUP2 EQ PUSH2 0xAF2 JUMPI PUSH1 0x0 DUP1 REVERT JUMPDEST PUSH1 0x0 DUP1 PUSH1 0x0 PUSH1 0x60 DUP5 DUP7 SUB SLT ISZERO PUSH2 0x25BE JUMPI PUSH1 0x0 DUP1 REVERT JUMPDEST DUP4 CALLDATALOAD PUSH2 0x25C9 DUP2 PUSH2 0x2306 JUMP JUMPDEST SWAP3 POP PUSH1 0x20 DUP5 ADD CALLDATALOAD PUSH2 0x25D9 DUP2 PUSH2 0x234F JUMP JUMPDEST SWAP2 POP PUSH1 0x40 DUP5 ADD CALLDATALOAD PUSH2 0x25E9 DUP2 PUSH2 0x2594 JUMP JUMPDEST DUP1 SWAP2 POP POP SWAP3 POP SWAP3 POP SWAP3 JUMP JUMPDEST PUSH1 0x0 PUSH1 0x20 DUP3 DUP5 SUB SLT ISZERO PUSH2 0x2606 JUMPI PUSH1 0x0 DUP1 REVERT JUMPDEST DUP2 CALLDATALOAD PUSH2 0x2348 DUP2 PUSH2 0x2594 JUMP JUMPDEST PUSH1 0x1 PUSH1 0x1 PUSH1 0x40 SHL SUB DUP12 DUP2 AND DUP3 MSTORE PUSH1 0x1 PUSH1 0x1 PUSH1 0xA0 SHL SUB DUP12 AND PUSH1 0x20 DUP4 ADD MSTORE DUP10 DUP2 AND PUSH1 0x40 DUP4 ADD MSTORE DUP9 AND PUSH1 0x60 DUP3 ADD MSTORE DUP7 ISZERO ISZERO PUSH1 0x80 DUP3 ADD MSTORE PUSH1 0xFF DUP7 DUP2 AND PUSH1 0xA0 DUP4 ADD MSTORE DUP6 AND PUSH1 0xC0 DUP3 ADD MSTORE PUSH2 0x140 DUP2 ADD PUSH2 0x2667 PUSH1 0xE0 DUP4 ADD DUP7 PUSH2 0x23AD JUMP JUMPDEST DUP4 PUSH2 0x100 DUP4 ADD MSTORE DUP3 ISZERO ISZERO PUSH2 0x120 DUP4 ADD MSTORE SWAP12 SWAP11 POP POP POP POP POP POP POP POP POP POP POP JUMP JUMPDEST PUSH1 0x0 DUP1 PUSH1 0x0 DUP1 PUSH1 0x60 DUP6 DUP8 SUB SLT ISZERO PUSH2 0x269C JUMPI PUSH1 0x0 DUP1 REVERT JUMPDEST DUP5 CALLDATALOAD PUSH2 0x26A7 DUP2 PUSH2 0x2306 JUMP JUMPDEST SWAP4 POP PUSH1 0x20 DUP6 ADD CALLDATALOAD PUSH2 0x26B7 DUP2 PUSH2 0x234F JUMP JUMPDEST SWAP3 POP PUSH1 0x40 DUP6 ADD CALLDATALOAD PUSH1 0x1 PUSH1 0x1 PUSH1 0x40 SHL SUB DUP2 GT ISZERO PUSH2 0x26D2 JUMPI PUSH1 0x0 DUP1 REVERT JUMPDEST PUSH2 0x26DE DUP8 DUP3 DUP9 ADD PUSH2 0x2453 JUMP JUMPDEST SWAP6 SWAP9 SWAP5 SWAP8 POP SWAP6 POP POP POP POP JUMP JUMPDEST PUSH4 0x4E487B71 PUSH1 0xE0 SHL PUSH1 0x0 MSTORE PUSH1 0x32 PUSH1 0x4 MSTORE PUSH1 0x24 PUSH1 0x0 REVERT JUMPDEST PUSH4 0x4E487B71 PUSH1 0xE0 SHL PUSH1 0x0 MSTORE PUSH1 0x11 PUSH1 0x4 MSTORE PUSH1 0x24 PUSH1 0x0 REVERT JUMPDEST PUSH1 0x1 PUSH1 0x1 PUSH1 0x40 SHL SUB DUP2 DUP2 AND DUP4 DUP3 AND MUL DUP1 DUP3 AND SWAP2 SWAP1 DUP3 DUP2 EQ PUSH2 0x2739 JUMPI PUSH2 0x2739 PUSH2 0x2700 JUMP JUMPDEST POP POP SWAP3 SWAP2 POP POP JUMP JUMPDEST PUSH4 0x4E487B71 PUSH1 0xE0 SHL PUSH1 0x0 MSTORE PUSH1 0x12 PUSH1 0x4 MSTORE PUSH1 0x24 PUSH1 0x0 REVERT JUMPDEST PUSH1 0x0 PUSH1 0x1 PUSH1 0x1 PUSH1 0x40 SHL SUB DUP1 DUP5 AND DUP1 PUSH2 0x2771 JUMPI PUSH2 0x2771 PUSH2 0x2741 JUMP JUMPDEST SWAP3 AND SWAP2 SWAP1 SWAP2 DIV SWAP3 SWAP2 POP POP JUMP JUMPDEST PUSH1 0x1 PUSH1 0x1 PUSH1 0x40 SHL SUB DUP3 DUP2 AND DUP3 DUP3 AND SUB SWAP1 DUP1 DUP3 GT ISZERO PUSH2 0x279D JUMPI PUSH2 0x279D PUSH2 0x2700 JUMP JUMPDEST POP SWAP3 SWAP2 POP POP JUMP JUMPDEST DUP1 DUP3 MUL DUP2 ISZERO DUP3 DUP3 DIV DUP5 EQ OR PUSH2 0x27BB JUMPI PUSH2 0x27BB PUSH2 0x2700 JUMP JUMPDEST SWAP3 SWAP2 POP POP JUMP JUMPDEST PUSH1 0x0 DUP3 PUSH2 0x27D0 JUMPI PUSH2 0x27D0 PUSH2 0x2741 JUMP JUMPDEST POP DIV SWAP1 JUMP JUMPDEST PUSH1 0x1 PUSH1 0x1 PUSH1 0x40 SHL SUB DUP2 DUP2 AND DUP4 DUP3 AND ADD SWAP1 DUP1 DUP3 GT ISZERO PUSH2 0x279D JUMPI PUSH2 0x279D PUSH2 0x2700 JUMP JUMPDEST PUSH1 0x20 DUP1 DUP3 MSTORE PUSH1 0xE SWAP1 DUP3 ADD MSTORE PUSH14 0x125B9D985B1A59081B585C9AD95D PUSH1 0x92 SHL PUSH1 0x40 DUP3 ADD MSTORE PUSH1 0x60 ADD SWAP1 JUMP JUMPDEST PUSH1 0x20 DUP1 DUP3 MSTORE PUSH1 0x10 SWAP1 DUP3 ADD MSTORE PUSH16 0x105B1C9958591E481C995CDBDB1D9959 PUSH1 0x82 SHL PUSH1 0x40 DUP3 ADD MSTORE PUSH1 0x60 ADD SWAP1 JUMP JUMPDEST PUSH1 0x0 PUSH1 0x1 PUSH1 0x1 PUSH1 0x40 SHL SUB DUP1 DUP4 AND DUP2 DUP2 SUB PUSH2 0x2863 JUMPI PUSH2 0x2863 PUSH2 0x2700 JUMP JUMPDEST PUSH1 0x1 ADD SWAP4 SWAP3 POP POP POP JUMP JUMPDEST PUSH4 0x4E487B71 PUSH1 0xE0 SHL PUSH1 0x0 MSTORE PUSH1 0x41 PUSH1 0x4 MSTORE PUSH1 0x24 PUSH1 0x0 REVERT JUMPDEST DUP2 DUP4 MSTORE DUP2 DUP2 PUSH1 0x20 DUP6 ADD CALLDATACOPY POP PUSH1 0x0 DUP3 DUP3 ADD PUSH1 0x20 SWAP1 DUP2 ADD SWAP2 SWAP1 SWAP2 MSTORE PUSH1 0x1F SWAP1 SWAP2 ADD PUSH1 0x1F NOT AND SWAP1 SWAP2 ADD ADD SWAP1 JUMP JUMPDEST PUSH1 0xE0 DUP2 MSTORE PUSH1 0x0 PUSH2 0x28C0 PUSH1 0xE0 DUP4 ADD DUP13 DUP15 PUSH2 0x2883 JUMP JUMPDEST PUSH1 0x20 DUP4 DUP3 SUB DUP2 DUP6 ADD MSTORE PUSH2 0x28D4 DUP3 DUP13 DUP15 PUSH2 0x2883 JUMP JUMPDEST DUP5 DUP2 SUB PUSH1 0x40 DUP7 ADD MSTORE DUP10 DUP2 MSTORE SWAP2 POP DUP1 DUP3 ADD PUSH1 0x5 DUP11 SWAP1 SHL DUP4 ADD DUP3 ADD DUP12 PUSH1 0x0 JUMPDEST DUP13 DUP2 LT ISZERO PUSH2 0x2960 JUMPI DUP6 DUP4 SUB PUSH1 0x1F NOT ADD DUP5 MSTORE DUP2 CALLDATALOAD CALLDATASIZE DUP16 SWAP1 SUB PUSH1 0x1E NOT ADD DUP2 SLT PUSH2 0x2917 JUMPI PUSH1 0x0 DUP1 REVERT JUMPDEST DUP15 ADD DUP6 DUP2 ADD SWAP1 CALLDATALOAD PUSH1 0x1 PUSH1 0x1 PUSH1 0x40 SHL SUB DUP2 GT ISZERO PUSH2 0x2932 JUMPI PUSH1 0x0 DUP1 REVERT JUMPDEST DUP1 CALLDATASIZE SUB DUP3 SGT ISZERO PUSH2 0x2941 JUMPI PUSH1 0x0 DUP1 REVERT JUMPDEST PUSH2 0x294C DUP6 DUP3 DUP5 PUSH2 0x2883 JUMP JUMPDEST SWAP6 DUP8 ADD SWAP6 SWAP5 POP POP POP SWAP1 DUP5 ADD SWAP1 PUSH1 0x1 ADD PUSH2 0x28F1 JUMP JUMPDEST POP POP PUSH1 0xFF DUP11 AND PUSH1 0x60 DUP8 ADD MSTORE SWAP4 POP PUSH2 0x2976 SWAP3 POP POP POP JUMP JUMPDEST PUSH2 0x2983 PUSH1 0x80 DUP4 ADD DUP7 PUSH2 0x23AD JUMP JUMPDEST PUSH1 0x1 PUSH1 0x1 PUSH1 0x40 SHL SUB DUP5 AND PUSH1 0xA0 DUP4 ADD MSTORE PUSH1 0x1 PUSH1 0x1 PUSH1 0x40 SHL SUB DUP4 AND PUSH1 0xC0 DUP4 ADD MSTORE SWAP12 SWAP11 POP POP POP POP POP POP POP POP POP POP POP JUMP JUMPDEST DUP1 DUP3 ADD DUP1 DUP3 GT ISZERO PUSH2 0x27BB JUMPI PUSH2 0x27BB PUSH2 0x2700 JUMP JUMPDEST DUP1 MLOAD PUSH2 0x2326 DUP2 PUSH2 0x2594 JUMP JUMPDEST DUP1 MLOAD PUSH2 0x2326 DUP2 PUSH2 0x2306 JUMP JUMPDEST PUSH1 0x0 JUMPDEST DUP4 DUP2 LT ISZERO PUSH2 0x29F4 JUMPI DUP2 DUP2 ADD MLOAD DUP4 DUP3 ADD MSTORE PUSH1 0x20 ADD PUSH2 0x29DC JUMP JUMPDEST POP POP PUSH1 0x0 SWAP2 ADD MSTORE JUMP JUMPDEST PUSH1 0x0 PUSH1 0x1 PUSH1 0x1 PUSH1 0x40 SHL SUB DUP1 DUP5 GT ISZERO PUSH2 0x2A17 JUMPI PUSH2 0x2A17 PUSH2 0x286D JUMP JUMPDEST PUSH1 0x40 MLOAD PUSH1 0x1F DUP6 ADD PUSH1 0x1F NOT SWAP1 DUP2 AND PUSH1 0x3F ADD AND DUP2 ADD SWAP1 DUP3 DUP3 GT DUP2 DUP4 LT OR ISZERO PUSH2 0x2A3F JUMPI PUSH2 0x2A3F PUSH2 0x286D JUMP JUMPDEST DUP2 PUSH1 0x40 MSTORE DUP1 SWAP4 POP DUP6 DUP2 MSTORE DUP7 DUP7 DUP7 ADD GT ISZERO PUSH2 0x2A58 JUMPI PUSH1 0x0 DUP1 REVERT JUMPDEST PUSH2 0x2A66 DUP7 PUSH1 0x20 DUP4 ADD DUP8 PUSH2 0x29D9 JUMP JUMPDEST POP POP POP SWAP4 SWAP3 POP POP POP JUMP JUMPDEST PUSH1 0x0 DUP3 PUSH1 0x1F DUP4 ADD SLT PUSH2 0x2A81 JUMPI PUSH1 0x0 DUP1 REVERT JUMPDEST PUSH2 0x2348 DUP4 DUP4 MLOAD PUSH1 0x20 DUP6 ADD PUSH2 0x29FD JUMP JUMPDEST PUSH1 0x0 DUP1 PUSH1 0x0 DUP1 PUSH1 0x0 DUP1 PUSH1 0x0 DUP1 PUSH1 0x0 DUP1 PUSH2 0x140 DUP12 DUP14 SUB SLT ISZERO PUSH2 0x2AB0 JUMPI PUSH1 0x0 DUP1 REVERT JUMPDEST DUP11 MLOAD DUP1 ISZERO ISZERO DUP2 EQ PUSH2 0x2AC0 JUMPI PUSH1 0x0 DUP1 REVERT JUMPDEST SWAP10 POP PUSH2 0x2ACE PUSH1 0x20 DUP13 ADD PUSH2 0x29C3 JUMP JUMPDEST SWAP9 POP PUSH2 0x2ADC PUSH1 0x40 DUP13 ADD PUSH2 0x29C3 JUMP JUMPDEST SWAP8 POP PUSH2 0x2AEA PUSH1 0x60 DUP13 ADD PUSH2 0x29C3 JUMP JUMPDEST SWAP7 POP PUSH2 0x2AF8 PUSH1 0x80 DUP13 ADD PUSH2 0x29CE JUMP JUMPDEST SWAP6 POP PUSH2 0x2B06 PUSH1 0xA0 DUP13 ADD PUSH2 0x29C3 JUMP JUMPDEST SWAP5 POP PUSH1 0xC0 DUP12 ADD MLOAD SWAP4 POP PUSH1 0xE0 DUP12 ADD MLOAD SWAP3 POP PUSH2 0x100 DUP12 ADD MLOAD SWAP2 POP PUSH2 0x120 DUP12 ADD MLOAD PUSH1 0x1 PUSH1 0x1 PUSH1 0x40 SHL SUB DUP2 GT ISZERO PUSH2 0x2B38 JUMPI PUSH1 0x0 DUP1 REVERT JUMPDEST PUSH2 0x2B44 DUP14 DUP3 DUP15 ADD PUSH2 0x2A70 JUMP JUMPDEST SWAP2 POP POP SWAP3 SWAP6 SWAP9 SWAP12 SWAP2 SWAP5 SWAP8 SWAP11 POP SWAP3 SWAP6 SWAP9 POP JUMP JUMPDEST PUSH1 0x0 DUP1 PUSH1 0x0 PUSH1 0x60 DUP5 DUP7 SUB SLT ISZERO PUSH2 0x2B6B JUMPI PUSH1 0x0 DUP1 REVERT JUMPDEST DUP4 MLOAD PUSH2 0x2B76 DUP2 PUSH2 0x2306 JUMP JUMPDEST PUSH1 0x20 DUP6 ADD MLOAD SWAP1 SWAP4 POP PUSH2 0x2B87 DUP2 PUSH2 0x234F JUMP JUMPDEST PUSH1 0x40 DUP6 ADD MLOAD SWAP1 SWAP3 POP PUSH1 0x1 PUSH1 0x1 PUSH1 0x40 SHL SUB DUP2 GT ISZERO PUSH2 0x2BA3 JUMPI PUSH1 0x0 DUP1 REVERT JUMPDEST DUP5 ADD PUSH1 0x1F DUP2 ADD DUP7 SGT PUSH2 0x2BB4 JUMPI PUSH1 0x0 DUP1 REVERT JUMPDEST PUSH2 0x2BC3 DUP7 DUP3 MLOAD PUSH1 0x20 DUP5 ADD PUSH2 0x29FD JUMP JUMPDEST SWAP2 POP POP SWAP3 POP SWAP3 POP SWAP3 JUMP JUMPDEST PUSH1 0x1 PUSH1 0x1 PUSH1 0x40 SHL SUB DUP6 AND DUP2 MSTORE PUSH1 0xFF DUP5 AND PUSH1 0x20 DUP3 ADD MSTORE PUSH1 0x60 PUSH1 0x40 DUP3 ADD MSTORE PUSH1 0x0 PUSH2 0x2BF9 PUSH1 0x60 DUP4 ADD DUP5 DUP7 PUSH2 0x2883 JUMP JUMPDEST SWAP7 SWAP6 POP POP POP POP POP POP JUMP JUMPDEST PUSH2 0x120 DUP2 MSTORE PUSH1 0x0 DUP11 MLOAD DUP1 PUSH2 0x120 DUP5 ADD MSTORE PUSH2 0x2C25 DUP2 PUSH2 0x140 DUP6 ADD PUSH1 0x20 DUP16 ADD PUSH2 0x29D9 JUMP JUMPDEST PUSH1 0x1 PUSH1 0x1 PUSH1 0xA0 SHL SUB SWAP11 DUP12 AND PUSH1 0x20 DUP5 ADD MSTORE SWAP9 DUP11 AND PUSH1 0x40 DUP4 ADD MSTORE POP SWAP6 DUP9 AND PUSH1 0x60 DUP8 ADD MSTORE PUSH1 0x1 PUSH1 0x1 PUSH1 0x40 SHL SUB SWAP5 SWAP1 SWAP5 AND PUSH1 0x80 DUP7 ADD MSTORE SWAP2 SWAP1 SWAP6 AND PUSH1 0xA0 DUP5 ADD MSTORE PUSH1 0xC0 DUP4 ADD SWAP5 SWAP1 SWAP5 MSTORE PUSH1 0xE0 DUP3 ADD SWAP4 SWAP1 SWAP4 MSTORE PUSH2 0x100 DUP2 ADD SWAP3 SWAP1 SWAP3 MSTORE PUSH1 0x1F ADD PUSH1 0x1F NOT AND ADD PUSH2 0x140 ADD SWAP2 SWAP1 POP JUMP JUMPDEST PUSH1 0x0 PUSH1 0x20 DUP3 DUP5 SUB SLT ISZERO PUSH2 0x2C9C JUMPI PUSH1 0x0 DUP1 REVERT JUMPDEST POP MLOAD SWAP2 SWAP1 POP JUMP JUMPDEST DUP2 DUP2 SUB DUP2 DUP2 GT ISZERO PUSH2 0x27BB JUMPI PUSH2 0x27BB PUSH2 0x2700 JUMP JUMPDEST PUSH1 0xFF DUP7 AND DUP2 MSTORE DUP5 PUSH1 0x20 DUP3 ADD MSTORE PUSH1 0x80 PUSH1 0x40 DUP3 ADD MSTORE PUSH1 0x0 PUSH2 0x2CD9 PUSH1 0x80 DUP4 ADD DUP6 DUP8 PUSH2 0x2883 JUMP JUMPDEST SWAP1 POP PUSH1 0x1 PUSH1 0x1 PUSH1 0x40 SHL SUB DUP4 AND PUSH1 0x60 DUP4 ADD MSTORE SWAP7 SWAP6 POP POP POP POP POP POP JUMP INVALID LOG2 PUSH5 0x6970667358 0x22 SLT KECCAK256 0xD5 0xD1 POP SWAP10 DUP4 0xD2 0xB4 0x4E PUSH29 0xE457547ADFA06EF42FCA9B9C776FB830F154F259A79A7F64736F6C6343 STOP ADDMOD EQ STOP CALLER "},"methodIdentifiers":{"ASSERTION_LIVENESS()":"4f39b4ef","DEFAULT_IDENTIFIER()":"ff1fca41","accumulatedFees()":"587f5ed7","assertionBond()":"7bdeb4c4","assertionIdToMarketId(bytes32)":"c79fdaf9","bets(uint64,uint8,address)":"6e8734bd","claimWinnings(uint64)":"08f7ed50","createMarket(string,string,string[],uint64,uint8)":"520d8dd0","creationFee()":"dce0b4e4","emergencyResolve(uint64,uint8)":"09d5e03d","finalizeResolution(uint64)":"a8e62338","getMarketState(uint64)":"201d2f2b","getUserBet(uint64,uint8,address)":"cff5c599","isOracleEnabled()":"3e08d254","markets(uint64)":"c48b3324","nextMarketId()":"406ef2ef","oo()":"8921a614","owner()":"8da5cb5b","pause()":"8456cb59","paused()":"5c975abb","platformFeeBps()":"22dcd13e","proposeResolution(uint64,uint8,string)":"e79c7666","purchaseShares(uint64,uint8)":"6a2d2a67","renounceOwnership()":"715018a6","setAssertionBond(uint256)":"50d86f0c","setCreationFee(uint64)":"1a12e7a9","setOracle(address)":"7adbf973","setPlatformFee(uint64)":"70af7df6","transferOwnership(address)":"f2fde38b","unpause()":"3f4ba83a","withdrawFees()":"476343ee"}}}}}