{
  "_format": "hh-sol-artifact-1",
  "contractName": "SmartAccount",
  "sourceName": "contracts/proxy/SmartAccount.sol",
  "abi": [
    {
      "inputs": [],
      "name": "ECDSAInvalidSignature",
      "type": "error"
    },
    {
      "inputs": [
        {
          "internalType": "uint256",
          "name": "length",
          "type": "uint256"
        }
      ],
      "name": "ECDSAInvalidSignatureLength",
      "type": "error"
    },
    {
      "inputs": [
        {
          "internalType": "bytes32",
          "name": "s",
          "type": "bytes32"
        }
      ],
      "name": "ECDSAInvalidSignatureS",
      "type": "error"
    },
    {
      "inputs": [],
      "name": "InvalidInitialization",
      "type": "error"
    },
    {
      "inputs": [],
      "name": "NotInitializing",
      "type": "error"
    },
    {
      "inputs": [],
      "name": "ReentrancyGuardReentrantCall",
      "type": "error"
    },
    {
      "anonymous": false,
      "inputs": [
        {
          "indexed": false,
          "internalType": "uint64",
          "name": "version",
          "type": "uint64"
        }
      ],
      "name": "Initialized",
      "type": "event"
    },
    {
      "anonymous": false,
      "inputs": [
        {
          "indexed": false,
          "internalType": "address",
          "name": "sender",
          "type": "address"
        },
        {
          "indexed": false,
          "internalType": "uint256",
          "name": "value",
          "type": "uint256"
        }
      ],
      "name": "Received",
      "type": "event"
    },
    {
      "anonymous": false,
      "inputs": [
        {
          "indexed": true,
          "internalType": "address",
          "name": "target",
          "type": "address"
        },
        {
          "indexed": false,
          "internalType": "uint256",
          "name": "value",
          "type": "uint256"
        },
        {
          "indexed": false,
          "internalType": "bytes",
          "name": "data",
          "type": "bytes"
        },
        {
          "indexed": false,
          "internalType": "bytes",
          "name": "result",
          "type": "bytes"
        }
      ],
      "name": "TransactionExecuted",
      "type": "event"
    },
    {
      "inputs": [],
      "name": "DOMAIN_SEPARATOR",
      "outputs": [
        {
          "internalType": "bytes32",
          "name": "",
          "type": "bytes32"
        }
      ],
      "stateMutability": "view",
      "type": "function"
    },
    {
      "inputs": [],
      "name": "EXECUTE_TYPEHASH",
      "outputs": [
        {
          "internalType": "bytes32",
          "name": "",
          "type": "bytes32"
        }
      ],
      "stateMutability": "view",
      "type": "function"
    },
    {
      "inputs": [],
      "name": "NAME",
      "outputs": [
        {
          "internalType": "string",
          "name": "",
          "type": "string"
        }
      ],
      "stateMutability": "view",
      "type": "function"
    },
    {
      "inputs": [],
      "name": "VERSION",
      "outputs": [
        {
          "internalType": "string",
          "name": "",
          "type": "string"
        }
      ],
      "stateMutability": "view",
      "type": "function"
    },
    {
      "inputs": [
        {
          "internalType": "address",
          "name": "target",
          "type": "address"
        },
        {
          "internalType": "uint256",
          "name": "value",
          "type": "uint256"
        },
        {
          "internalType": "bytes",
          "name": "data",
          "type": "bytes"
        },
        {
          "internalType": "bytes",
          "name": "signature",
          "type": "bytes"
        }
      ],
      "name": "execute",
      "outputs": [],
      "stateMutability": "payable",
      "type": "function"
    },
    {
      "inputs": [
        {
          "internalType": "address",
          "name": "target",
          "type": "address"
        },
        {
          "internalType": "uint256",
          "name": "value",
          "type": "uint256"
        },
        {
          "internalType": "bytes",
          "name": "data",
          "type": "bytes"
        }
      ],
      "name": "executeDirect",
      "outputs": [],
      "stateMutability": "payable",
      "type": "function"
    },
    {
      "inputs": [
        {
          "internalType": "address",
          "name": "_owner",
          "type": "address"
        }
      ],
      "name": "initialize",
      "outputs": [],
      "stateMutability": "nonpayable",
      "type": "function"
    },
    {
      "inputs": [],
      "name": "nonce",
      "outputs": [
        {
          "internalType": "uint256",
          "name": "",
          "type": "uint256"
        }
      ],
      "stateMutability": "view",
      "type": "function"
    },
    {
      "inputs": [],
      "name": "owner",
      "outputs": [
        {
          "internalType": "address",
          "name": "",
          "type": "address"
        }
      ],
      "stateMutability": "view",
      "type": "function"
    },
    {
      "stateMutability": "payable",
      "type": "receive"
    }
  ],
  "bytecode": "0x608060405234801561001057600080fd5b506001600055610d0a806100256000396000f3fe60806040526004361061008a5760003560e01c8063a3f4df7e11610059578063a3f4df7e14610178578063affed0e0146101c7578063c4d66de8146101dd578063da0980c7146101fd578063ffa1ad741461021057600080fd5b80633644e515146100ce57806360d2f33d146100f75780638da5cb5b1461012b578063a16982671461016357600080fd5b366100c957604080513381523460208201527f88a5966d370b9919b20f3e2c13ff65706f196a4e32cc2c12bf57088f88525874910160405180910390a1005b600080fd5b3480156100da57600080fd5b506100e460035481565b6040519081526020015b60405180910390f35b34801561010357600080fd5b506100e47f89b581735b991f9e18a2cd0f97d7d98af618f2e378c9201ad8e84f556492ace981565b34801561013757600080fd5b5060015461014b906001600160a01b031681565b6040516001600160a01b0390911681526020016100ee565b610176610171366004610ad9565b610241565b005b34801561018457600080fd5b506101ba6040518060400160405280601681526020017515d859d95b5bdc994814db585c9d081058d8dbdd5b9d60521b81525081565b6040516100ee9190610b79565b3480156101d357600080fd5b506100e460025481565b3480156101e957600080fd5b506101766101f8366004610b93565b610395565b61017661020b366004610bae565b6105de565b34801561021c57600080fd5b506101ba604051806040016040528060058152602001640312e302e360dc1b81525081565b610249610847565b6001546001600160a01b031633146102955760405162461bcd60e51b815260206004820152600a60248201526927b7363c9037bbb732b960b11b60448201526064015b60405180910390fd5b600080856001600160a01b03168585856040516102b3929190610c38565b60006040518083038185875af1925050503d80600081146102f0576040519150601f19603f3d011682016040523d82523d6000602084013e6102f5565b606091505b50915091508161033c5760405162461bcd60e51b8152602060048201526012602482015271151c985b9cd858dd1a5bdb8819985a5b195960721b604482015260640161028c565b856001600160a01b03167f012ae8711b8dc37e405d8e422569d1ee78d52d76bc8fe2a9ea81ffe17569e51a8686868560405161037b9493929190610c48565b60405180910390a2505061038f6001600055565b50505050565b7ff0c57e16840df040f15088dc2f81fe391c3923bec73e23a9662efc9c229c6a008054600160401b810460ff16159067ffffffffffffffff166000811580156103db5750825b905060008267ffffffffffffffff1660011480156103f85750303b155b905081158015610406575080155b156104245760405163f92ee8a960e01b815260040160405180910390fd5b845467ffffffffffffffff19166001178555831561044e57845460ff60401b1916600160401b1785555b6001600160a01b0386166104945760405162461bcd60e51b815260206004820152600d60248201526c24b73b30b634b21037bbb732b960991b604482015260640161028c565b600180546001600160a01b0319166001600160a01b038816179055604080518082018252601681527515d859d95b5bdc994814db585c9d081058d8dbdd5b9d60521b6020918201528151808301835260058152640312e302e360dc1b9082015281517f8b73c3c69bb8fe3d512ecc4cf759cc79239f7b179b0ffacaa9a75d522b39400f818301527faf63bb877cd1b615cee1627d5ede2465d21082d08e808994271adcc599b69f6c818401527f06c015bd22b4c69690933c1058878ebdfef31f9aaae40bbe86d8a09fe1b2972c60608201524660808201523060a0808301919091528351808303909101815260c0909101909252815191012060035583156105d657845460ff60401b19168555604051600181527fc7f505b2f371ae2175ee4913f4499e1f2633a7b5936321eed1cdaeb6115181d29060200160405180910390a15b505050505050565b6105e6610847565b60007f89b581735b991f9e18a2cd0f97d7d98af618f2e378c9201ad8e84f556492ace98787878760405161061b929190610c38565b60405190819003812060025461065d959493926020019485526001600160a01b0393909316602085015260408401919091526060830152608082015260a00190565b604051602081830303815290604052805190602001209050600061069d6003548360405161190160f01b8152600281019290925260228201526042902090565b905060006106e18286868080601f01602080910402602001604051908101604052809392919081815260200183838082843760009201919091525061087192505050565b6001549091506001600160a01b038083169116146107355760405162461bcd60e51b8152602060048201526011602482015270496e76616c6964207369676e617475726560781b604482015260640161028c565b6002805490600061074583610c97565b91905055506000808a6001600160a01b03168a8a8a604051610768929190610c38565b60006040518083038185875af1925050503d80600081146107a5576040519150601f19603f3d011682016040523d82523d6000602084013e6107aa565b606091505b5091509150816107f15760405162461bcd60e51b8152602060048201526012602482015271151c985b9cd858dd1a5bdb8819985a5b195960721b604482015260640161028c565b8a6001600160a01b03167f012ae8711b8dc37e405d8e422569d1ee78d52d76bc8fe2a9ea81ffe17569e51a8b8b8b856040516108309493929190610c48565b60405180910390a250505050506105d66001600055565b60026000540361086a57604051633ee5aeb560e01b815260040160405180910390fd5b6002600055565b600080600080610881868661089b565b92509250925061089182826108e8565b5090949350505050565b600080600083516041036108d55760208401516040850151606086015160001a6108c7888285856109a5565b9550955095505050506108e1565b50508151600091506002905b9250925092565b60008260038111156108fc576108fc610cbe565b03610905575050565b600182600381111561091957610919610cbe565b036109375760405163f645eedf60e01b815260040160405180910390fd5b600282600381111561094b5761094b610cbe565b0361096c5760405163fce698f760e01b81526004810182905260240161028c565b600382600381111561098057610980610cbe565b036109a1576040516335e2f38360e21b81526004810182905260240161028c565b5050565b600080807f7fffffffffffffffffffffffffffffff5d576e7357a4501ddfe92f46681b20a08411156109e05750600091506003905082610a6a565b604080516000808252602082018084528a905260ff891692820192909252606081018790526080810186905260019060a0016020604051602081039080840390855afa158015610a34573d6000803e3d6000fd5b5050604051601f1901519150506001600160a01b038116610a6057506000925060019150829050610a6a565b9250600091508190505b9450945094915050565b80356001600160a01b0381168114610a8b57600080fd5b919050565b60008083601f840112610aa257600080fd5b50813567ffffffffffffffff811115610aba57600080fd5b602083019150836020828501011115610ad257600080fd5b9250929050565b60008060008060608587031215610aef57600080fd5b610af885610a74565b935060208501359250604085013567ffffffffffffffff811115610b1b57600080fd5b610b2787828801610a90565b95989497509550505050565b6000815180845260005b81811015610b5957602081850181015186830182015201610b3d565b506000602082860101526020601f19601f83011685010191505092915050565b602081526000610b8c6020830184610b33565b9392505050565b600060208284031215610ba557600080fd5b610b8c82610a74565b60008060008060008060808789031215610bc757600080fd5b610bd087610a74565b955060208701359450604087013567ffffffffffffffff80821115610bf457600080fd5b610c008a838b01610a90565b90965094506060890135915080821115610c1957600080fd5b50610c2689828a01610a90565b979a9699509497509295939492505050565b8183823760009101908152919050565b84815260606020820152826060820152828460808301376000608084830101526000601f19601f85011682016080838203016040840152610c8c6080820185610b33565b979650505050505050565b600060018201610cb757634e487b7160e01b600052601160045260246000fd5b5060010190565b634e487b7160e01b600052602160045260246000fdfea2646970667358221220f52302d931aa9290b56668b728427779f61cd8e3e6dd048a46b2907a0e19ebba64736f6c63430008140033",
  "linkReferences": {},
  "deployedLinkReferences": {}
}